{
  "_format": "hh-sol-artifact-1",
  "contractName": "App",
  "sourceName": "contracts/app/App.sol",
  "abi": [
    {
      "inputs": [
        {
          "internalType": "address",
          "name": "_sfHost",
          "type": "address"
        },
        {
          "internalType": "address",
          "name": "_sfCFA",
          "type": "address"
        },
        {
          "internalType": "address",
          "name": "_sfResolver",
          "type": "address"
        },
        {
          "internalType": "string",
          "name": "_sfVersion",
          "type": "string"
        }
      ],
      "stateMutability": "nonpayable",
      "type": "constructor"
    },
    {
      "inputs": [
        {
          "internalType": "contract ERC20WithTokenInfo",
          "name": "_token",
          "type": "address"
        }
      ],
      "name": "createSuperToken",
      "outputs": [
        {
          "internalType": "contract ISuperToken",
          "name": "superToken",
          "type": "address"
        }
      ],
      "stateMutability": "nonpayable",
      "type": "function"
    },
    {
      "inputs": [
        {
          "internalType": "contract ERC20WithTokenInfo",
          "name": "_token",
          "type": "address"
        }
      ],
      "name": "getSuperToken",
      "outputs": [
        {
          "internalType": "address",
          "name": "tokenAddress",
          "type": "address"
        }
      ],
      "stateMutability": "view",
      "type": "function"
    },
    {
      "inputs": [
        {
          "internalType": "contract ERC20WithTokenInfo",
          "name": "_token",
          "type": "address"
        }
      ],
      "name": "isSuperToken",
      "outputs": [
        {
          "internalType": "bool",
          "name": "",
          "type": "bool"
        }
      ],
      "stateMutability": "view",
      "type": "function"
    },
    {
      "inputs": [
        {
          "internalType": "address",
          "name": "",
          "type": "address"
        }
      ],
      "name": "superTokenRegistry",
      "outputs": [
        {
          "internalType": "address",
          "name": "",
          "type": "address"
        }
      ],
      "stateMutability": "view",
      "type": "function"
    },
    {
      "inputs": [],
      "name": "superfluidConfig",
      "outputs": [
        {
          "internalType": "contract ISuperfluid",
          "name": "",
          "type": "address"
        },
        {
          "internalType": "contract IResolver",
          "name": "",
          "type": "address"
        },
        {
          "internalType": "contract IConstantFlowAgreementV1",
          "name": "",
          "type": "address"
        },
        {
          "internalType": "string",
          "name": "",
          "type": "string"
        }
      ],
      "stateMutability": "view",
      "type": "function"
    }
  ],
  "bytecode": "0x60806040523480156200001157600080fd5b506040516200102038038062001020833981016040819052620000349162000258565b6200004d848484846200005760201b620006ff1760201c565b5050505062000350565b600054610100900460ff1680620000735750620000736200016c565b8062000082575060005460ff16155b620000bf5760405162461bcd60e51b815260040180806020018281038252602e81526020018062000ff2602e913960400191505060405180910390fd5b600054610100900460ff16158015620000eb576000805460ff1961ff0019909116610100171660011790555b600080546001600160a01b03808816620100000262010000600160b01b031990921691909117909155600180548683166001600160a01b031991821617909155600280549286169290911691909117905581516200015190600390602085019062000194565b50801562000165576000805461ff00191690555b5050505050565b600062000184306200018a60201b6200080a1760201c565b15905090565b803b15155b919050565b828054600181600116156101000203166002900490600052602060002090601f016020900481019282620001cc576000855562000217565b82601f10620001e757805160ff191683800117855562000217565b8280016001018555821562000217579182015b8281111562000217578251825591602001919060010190620001fa565b506200022592915062000229565b5090565b5b808211156200022557600081556001016200022a565b80516001600160a01b03811681146200018f57600080fd5b600080600080608085870312156200026e578384fd5b620002798562000240565b935060206200028a81870162000240565b93506200029a6040870162000240565b60608701519093506001600160401b0380821115620002b7578384fd5b818801915088601f830112620002cb578384fd5b815181811115620002d857fe5b604051601f8201601f1916810185018381118282101715620002f657fe5b60405281815283820185018b10156200030d578586fd5b8592505b8183101562000330578383018501518184018601529184019162000311565b818311156200034157858583830101525b979a9699509497505050505050565b610c9280620003606000396000f3fe608060405234801561001057600080fd5b50600436106100575760003560e01c80630c08a5c41461005c578063a7403a3214610085578063a8866adc14610098578063ce69fd6f146100ab578063f6670545146100cb575b600080fd5b61006f61006a3660046108c2565b6100e3565b60405161007c9190610b31565b60405180910390f35b61006f6100933660046108c2565b610231565b61006f6100a63660046108c2565b6104ea565b6100be6100b93660046108c2565b610505565b60405161007c9190610b45565b6100d3610635565b60405161007c9493929190610b9f565b6000806003836001600160a01b03166395d89b416040518163ffffffff1660e01b815260040160006040518083038186803b15801561012157600080fd5b505afa158015610135573d6000803e3d6000fd5b505050506040513d6000823e601f3d908101601f1916820160405261015d9190810190610901565b60405160200161016e929190610aa7565b60408051601f198184030181529082905260025463349f642f60e11b83529092506001600160a01b03169063693ec85e906101ad908490600401610bd3565b60206040518083038186803b1580156101c557600080fd5b505afa1580156101d9573d6000803e3d6000fd5b505050506040513d601f19601f820116820180604052508101906101fd91906108e5565b91506001600160a01b03821661022b576001600160a01b038084166000908152600460205260409020541691505b50919050565b6001600160a01b038181166000908152600460205260408120549091161561027457506001600160a01b03808216600090815260046020526040902054166104e5565b60008060029054906101000a90046001600160a01b03166001600160a01b031663731aed6e6040518163ffffffff1660e01b815260040160206040518083038186803b1580156102c357600080fd5b505afa1580156102d7573d6000803e3d6000fd5b505050506040513d601f19601f820116820180604052508101906102fb91906108e5565b90506000836001600160a01b03166306fdde036040518163ffffffff1660e01b815260040160006040518083038186803b15801561033857600080fd5b505afa15801561034c573d6000803e3d6000fd5b505050506040513d6000823e601f3d908101601f191682016040526103749190810190610901565b6040516020016103849190610b03565b60405160208183030381529060405290506000846001600160a01b03166395d89b416040518163ffffffff1660e01b815260040160006040518083038186803b1580156103d057600080fd5b505afa1580156103e4573d6000803e3d6000fd5b505050506040513d6000823e601f3d908101601f1916820160405261040c9190810190610901565b60405160200161041c9190610a34565b60408051601f198184030181529082905263431f148160e01b825291506001600160a01b0384169063431f14819061045f90889060029087908790600401610b50565b602060405180830381600087803b15801561047957600080fd5b505af115801561048d573d6000803e3d6000fd5b505050506040513d601f19601f820116820180604052508101906104b191906108e5565b6001600160a01b03868116600090815260046020526040902080546001600160a01b03191691831691909117905593505050505b919050565b6004602052600090815260409020546001600160a01b031681565b6000806003836001600160a01b03166395d89b416040518163ffffffff1660e01b815260040160006040518083038186803b15801561054357600080fd5b505afa158015610557573d6000803e3d6000fd5b505050506040513d6000823e601f3d908101601f1916820160405261057f9190810190610901565b604051602001610590929190610a59565b60408051601f198184030181529082905260025463349f642f60e11b83529092506001600160a01b038086169291169063693ec85e906105d4908590600401610bd3565b60206040518083038186803b1580156105ec57600080fd5b505afa158015610600573d6000803e3d6000fd5b505050506040513d601f19601f8201168201806040525081019061062491906108e5565b6001600160a01b0316149392505050565b6000805460028054600180546003805460408051602061010096841615969096026000190190921696909604601f810185900485028201850190965285815287968796606096620100009092046001600160a01b039081169692811695169392918391908301828280156106ea5780601f106106bf576101008083540402835291602001916106ea565b820191906000526020600020905b8154815290600101906020018083116106cd57829003601f168201915b50505050509050935093509350935090919293565b600054610100900460ff16806107185750610718610810565b80610726575060005460ff16155b6107615760405162461bcd60e51b815260040180806020018281038252602e815260200180610c2f602e913960400191505060405180910390fd5b600054610100900460ff1615801561078c576000805460ff1961ff0019909116610100171660011790555b600080546001600160a01b03808816620100000262010000600160b01b031990921691909117909155600180548683166001600160a01b031991821617909155600280549286169290911691909117905581516107f0906003906020850190610821565b508015610803576000805461ff00191690555b5050505050565b3b151590565b600061081b3061080a565b15905090565b828054600181600116156101000203166002900490600052602060002090601f016020900481019282610857576000855561089d565b82601f1061087057805160ff191683800117855561089d565b8280016001018555821561089d579182015b8281111561089d578251825591602001919060010190610882565b506108a99291506108ad565b5090565b5b808211156108a957600081556001016108ae565b6000602082840312156108d3578081fd5b81356108de81610c16565b9392505050565b6000602082840312156108f6578081fd5b81516108de81610c16565b600060208284031215610912578081fd5b815167ffffffffffffffff80821115610929578283fd5b818401915084601f83011261093c578283fd5b81518181111561094857fe5b604051601f8201601f19168101602001838111828210171561096657fe5b60405281815283820160200187101561097d578485fd5b61098e826020830160208701610be6565b9695505050505050565b600081518084526109b0816020860160208601610be6565b601f01601f19169290920160200192915050565b600081546001808216600081146109e257600181146109f957610a2b565b60ff198316865260028304607f1686019350610a2b565b600283048560005260208060002060005b83811015610a235781548a820152908501908201610a0a565b505050860193505b50505092915050565b60008251610a46818460208701610be6565b600f60fb1b920191825250600101919050565b60006a7375706572746f6b656e7360a81b8252601760f91b80600b840152610a84600c8401866109c4565b908152835190610a9b826001830160208801610be6565b01600101949350505050565b60006a7375706572746f6b656e7360a81b8252601760f91b80600b840152610ad2600c8401866109c4565b908152835190610ae9826001830160208801610be6565b600f60fb1b91016001810191909152600201949350505050565b600065029bab832b9160d51b82528251610b24816006850160208701610be6565b9190910160060192915050565b6001600160a01b0391909116815260200190565b901515815260200190565b6001600160a01b0385168152600060038510610b6857fe5b84602083015260806040830152610b826080830185610998565b8281036060840152610b948185610998565b979650505050505050565b6001600160a01b03858116825284811660208301528316604082015260806060820181905260009061098e90830184610998565b6000602082526108de6020830184610998565b60005b83811015610c01578181015183820152602001610be9565b83811115610c10576000848401525b50505050565b6001600160a01b0381168114610c2b57600080fd5b5056fe496e697469616c697a61626c653a20636f6e747261637420697320616c726561647920696e697469616c697a6564a2646970667358221220776d905283cc7fd16160e1ba0a7a71b2da9152ab7c969be51ee93cf0eb67a5e464736f6c63430007060033496e697469616c697a61626c653a20636f6e747261637420697320616c726561647920696e697469616c697a6564",
  "linkReferences": {},
  "deployedLinkReferences": {}
}