{
  "_format": "hh-sol-artifact-1",
  "contractName": "SuperfluidMinionFactory",
  "sourceName": "contracts/factory/SuperfluidMinionFactory.sol",
  "abi": [
    {
      "inputs": [
        {
          "internalType": "address payable",
          "name": "_template",
          "type": "address"
        }
      ],
      "stateMutability": "nonpayable",
      "type": "constructor"
    },
    {
      "anonymous": false,
      "inputs": [
        {
          "indexed": true,
          "internalType": "address",
          "name": "minion",
          "type": "address"
        },
        {
          "indexed": true,
          "internalType": "address",
          "name": "moloch",
          "type": "address"
        },
        {
          "indexed": false,
          "internalType": "string",
          "name": "details",
          "type": "string"
        },
        {
          "indexed": false,
          "internalType": "string",
          "name": "minionType",
          "type": "string"
        }
      ],
      "name": "SummonMinion",
      "type": "event"
    },
    {
      "inputs": [
        {
          "internalType": "uint256",
          "name": "",
          "type": "uint256"
        }
      ],
      "name": "minionList",
      "outputs": [
        {
          "internalType": "address",
          "name": "",
          "type": "address"
        }
      ],
      "stateMutability": "view",
      "type": "function"
    },
    {
      "inputs": [
        {
          "internalType": "address",
          "name": "",
          "type": "address"
        }
      ],
      "name": "minions",
      "outputs": [
        {
          "internalType": "address",
          "name": "moloch",
          "type": "address"
        },
        {
          "internalType": "address",
          "name": "sfApp",
          "type": "address"
        },
        {
          "internalType": "string",
          "name": "details",
          "type": "string"
        }
      ],
      "stateMutability": "view",
      "type": "function"
    },
    {
      "inputs": [
        {
          "internalType": "address",
          "name": "moloch",
          "type": "address"
        },
        {
          "internalType": "address",
          "name": "_sfApp",
          "type": "address"
        },
        {
          "internalType": "string",
          "name": "details",
          "type": "string"
        }
      ],
      "name": "summonMinion",
      "outputs": [
        {
          "internalType": "address",
          "name": "",
          "type": "address"
        }
      ],
      "stateMutability": "nonpayable",
      "type": "function"
    },
    {
      "inputs": [],
      "name": "template",
      "outputs": [
        {
          "internalType": "address payable",
          "name": "",
          "type": "address"
        }
      ],
      "stateMutability": "view",
      "type": "function"
    }
  ],
  "bytecode": "0x60a060405234801561001057600080fd5b5060405161075b38038061075b8339818101604052602081101561003357600080fd5b5051606081901b6001600160601b0319166080526001600160a01b03166106ef61006c60003980610211528061026552506106ef6000f3fe608060405234801561001057600080fd5b506004361061004c5760003560e01c80636f2ddd93146100515780637b37458714610075578063b0b05f9114610092578063d67014df14610151575b600080fd5b61005961020f565b604080516001600160a01b039092168252519081900360200190f35b6100596004803603602081101561008b57600080fd5b5035610233565b610059600480360360608110156100a857600080fd5b6001600160a01b0382358116926020810135909116918101906060810160408201356401000000008111156100dc57600080fd5b8201836020820111156100ee57600080fd5b8035906020019184600183028401116401000000008311171561011057600080fd5b91908080601f01602080910402602001604051908101604052809392919081815260200183838082843760009201919091525092955061025d945050505050565b6101776004803603602081101561016757600080fd5b50356001600160a01b031661050d565b60405180846001600160a01b03168152602001836001600160a01b0316815260200180602001828103825283818151815260200191508051906020019080838360005b838110156101d25781810151838201526020016101ba565b50505050905090810190601f1680156101ff5780820380516001836020036101000a031916815260200191505b5094505050505060405180910390f35b7f000000000000000000000000000000000000000000000000000000000000000081565b6000818154811061024357600080fd5b6000918252602090912001546001600160a01b0316905081565b6000806102897f00000000000000000000000000000000000000000000000000000000000000006105c6565b9050806001600160a01b031663f09a401686866040518363ffffffff1660e01b815260040180836001600160a01b03168152602001826001600160a01b0316815260200192505050600060405180830381600087803b1580156102eb57600080fd5b505af11580156102ff573d6000803e3d6000fd5b5050604080518082018252601181527029bab832b933363ab4b21036b4b734b7b760791b60208083019190915282516060810184526001600160a01b03808c1682528a81168284019081528286018b815289831660009081526001808752979020845181549085166001600160a01b031991821617825592519781018054989094169790921696909617909155935180519396509094506103a99260028501929190910190610618565b5050600080546001810182558180527f290decd9548b62a8d60345a988386fc84ba6bc95484008f6362f93160ef3e5630180546001600160a01b0319166001600160a01b03868116918217909255604080518181528951918101919091528851928b16945090927f82c46fce23f68e421df03972dc4fcfc2add76d8c37a037fbc47e378d132ca6269289928792909182916020808401926060850192918801918190849084905b83811015610468578181015183820152602001610450565b50505050905090810190601f1680156104955780820380516001836020036101000a031916815260200191505b50838103825284518152845160209182019186019080838360005b838110156104c85781810151838201526020016104b0565b50505050905090810190601f1680156104f55780820380516001836020036101000a031916815260200191505b5094505050505060405180910390a350949350505050565b6001602081815260009283526040928390208054818401546002808401805488516101009882161598909802600019011691909104601f81018690048602870186019097528686526001600160a01b0392831696929091169492939091908301828280156105bc5780601f10610591576101008083540402835291602001916105bc565b820191906000526020600020905b81548152906001019060200180831161059f57829003601f168201915b5050505050905083565b6000808260601b9050604051733d602d80600a3d3981f3363d3d373d3d3d363d7360601b81528160148201526e5af43d82803e903d91602b57fd5bf360881b60288201526037816000f0949350505050565b828054600181600116156101000203166002900490600052602060002090601f01602090048101928261064e5760008555610694565b82601f1061066757805160ff1916838001178555610694565b82800160010185558215610694579182015b82811115610694578251825591602001919060010190610679565b506106a09291506106a4565b5090565b5b808211156106a057600081556001016106a556fea264697066735822122000ec83f3add4fc61c2d64fc2730fa50829789f85141ff5256e09f359d503838a64736f6c63430007060033",
  "linkReferences": {},
  "deployedLinkReferences": {}
}