{
  "_format": "hh-sol-artifact-1",
  "contractName": "SuperAppV1",
  "sourceName": "contracts/app/SuperAppV1.sol",
  "abi": [
    {
      "inputs": [
        {
          "internalType": "contract ISuperToken",
          "name": "",
          "type": "address"
        },
        {
          "internalType": "address",
          "name": "",
          "type": "address"
        },
        {
          "internalType": "bytes32",
          "name": "",
          "type": "bytes32"
        },
        {
          "internalType": "bytes",
          "name": "",
          "type": "bytes"
        },
        {
          "internalType": "bytes",
          "name": "",
          "type": "bytes"
        },
        {
          "internalType": "bytes",
          "name": "",
          "type": "bytes"
        }
      ],
      "name": "afterAgreementCreated",
      "outputs": [
        {
          "internalType": "bytes",
          "name": "",
          "type": "bytes"
        }
      ],
      "stateMutability": "nonpayable",
      "type": "function"
    },
    {
      "inputs": [
        {
          "internalType": "contract ISuperToken",
          "name": "",
          "type": "address"
        },
        {
          "internalType": "address",
          "name": "",
          "type": "address"
        },
        {
          "internalType": "bytes32",
          "name": "",
          "type": "bytes32"
        },
        {
          "internalType": "bytes",
          "name": "",
          "type": "bytes"
        },
        {
          "internalType": "bytes",
          "name": "",
          "type": "bytes"
        },
        {
          "internalType": "bytes",
          "name": "",
          "type": "bytes"
        }
      ],
      "name": "afterAgreementTerminated",
      "outputs": [
        {
          "internalType": "bytes",
          "name": "",
          "type": "bytes"
        }
      ],
      "stateMutability": "nonpayable",
      "type": "function"
    },
    {
      "inputs": [
        {
          "internalType": "contract ISuperToken",
          "name": "",
          "type": "address"
        },
        {
          "internalType": "address",
          "name": "",
          "type": "address"
        },
        {
          "internalType": "bytes32",
          "name": "",
          "type": "bytes32"
        },
        {
          "internalType": "bytes",
          "name": "",
          "type": "bytes"
        },
        {
          "internalType": "bytes",
          "name": "",
          "type": "bytes"
        },
        {
          "internalType": "bytes",
          "name": "",
          "type": "bytes"
        }
      ],
      "name": "afterAgreementUpdated",
      "outputs": [
        {
          "internalType": "bytes",
          "name": "",
          "type": "bytes"
        }
      ],
      "stateMutability": "nonpayable",
      "type": "function"
    },
    {
      "inputs": [
        {
          "internalType": "contract ISuperToken",
          "name": "",
          "type": "address"
        },
        {
          "internalType": "address",
          "name": "",
          "type": "address"
        },
        {
          "internalType": "bytes32",
          "name": "",
          "type": "bytes32"
        },
        {
          "internalType": "bytes",
          "name": "",
          "type": "bytes"
        },
        {
          "internalType": "bytes",
          "name": "",
          "type": "bytes"
        }
      ],
      "name": "beforeAgreementCreated",
      "outputs": [
        {
          "internalType": "bytes",
          "name": "",
          "type": "bytes"
        }
      ],
      "stateMutability": "view",
      "type": "function"
    },
    {
      "inputs": [
        {
          "internalType": "contract ISuperToken",
          "name": "",
          "type": "address"
        },
        {
          "internalType": "address",
          "name": "",
          "type": "address"
        },
        {
          "internalType": "bytes32",
          "name": "",
          "type": "bytes32"
        },
        {
          "internalType": "bytes",
          "name": "",
          "type": "bytes"
        },
        {
          "internalType": "bytes",
          "name": "",
          "type": "bytes"
        }
      ],
      "name": "beforeAgreementTerminated",
      "outputs": [
        {
          "internalType": "bytes",
          "name": "",
          "type": "bytes"
        }
      ],
      "stateMutability": "view",
      "type": "function"
    },
    {
      "inputs": [
        {
          "internalType": "contract ISuperToken",
          "name": "",
          "type": "address"
        },
        {
          "internalType": "address",
          "name": "",
          "type": "address"
        },
        {
          "internalType": "bytes32",
          "name": "",
          "type": "bytes32"
        },
        {
          "internalType": "bytes",
          "name": "",
          "type": "bytes"
        },
        {
          "internalType": "bytes",
          "name": "",
          "type": "bytes"
        }
      ],
      "name": "beforeAgreementUpdated",
      "outputs": [
        {
          "internalType": "bytes",
          "name": "",
          "type": "bytes"
        }
      ],
      "stateMutability": "view",
      "type": "function"
    },
    {
      "inputs": [
        {
          "internalType": "contract ERC20WithTokenInfo",
          "name": "_token",
          "type": "address"
        }
      ],
      "name": "createSuperToken",
      "outputs": [
        {
          "internalType": "contract ISuperToken",
          "name": "superToken",
          "type": "address"
        }
      ],
      "stateMutability": "nonpayable",
      "type": "function"
    },
    {
      "inputs": [
        {
          "internalType": "contract ERC20WithTokenInfo",
          "name": "_token",
          "type": "address"
        }
      ],
      "name": "getSuperToken",
      "outputs": [
        {
          "internalType": "address",
          "name": "tokenAddress",
          "type": "address"
        }
      ],
      "stateMutability": "view",
      "type": "function"
    },
    {
      "inputs": [
        {
          "internalType": "address",
          "name": "_sfHost",
          "type": "address"
        },
        {
          "internalType": "address",
          "name": "_sfCFA",
          "type": "address"
        },
        {
          "internalType": "address",
          "name": "_sfResolver",
          "type": "address"
        },
        {
          "internalType": "string",
          "name": "_sfVersion",
          "type": "string"
        }
      ],
      "name": "initialize",
      "outputs": [],
      "stateMutability": "nonpayable",
      "type": "function"
    },
    {
      "inputs": [
        {
          "internalType": "contract ERC20WithTokenInfo",
          "name": "_token",
          "type": "address"
        }
      ],
      "name": "isSuperToken",
      "outputs": [
        {
          "internalType": "bool",
          "name": "",
          "type": "bool"
        }
      ],
      "stateMutability": "view",
      "type": "function"
    },
    {
      "inputs": [
        {
          "internalType": "address",
          "name": "",
          "type": "address"
        }
      ],
      "name": "superTokenRegistry",
      "outputs": [
        {
          "internalType": "address",
          "name": "",
          "type": "address"
        }
      ],
      "stateMutability": "view",
      "type": "function"
    },
    {
      "inputs": [],
      "name": "superfluidConfig",
      "outputs": [
        {
          "internalType": "contract ISuperfluid",
          "name": "",
          "type": "address"
        },
        {
          "internalType": "contract IResolver",
          "name": "",
          "type": "address"
        },
        {
          "internalType": "contract IConstantFlowAgreementV1",
          "name": "",
          "type": "address"
        },
        {
          "internalType": "string",
          "name": "",
          "type": "string"
        }
      ],
      "stateMutability": "view",
      "type": "function"
    }
  ],
  "bytecode": "0x608060405234801561001057600080fd5b506113a1806100206000396000f3fe608060405234801561001057600080fd5b50600436106100b45760003560e01c8063884d1f4011610071578063884d1f4014610150578063a7403a3214610163578063a8866adc14610176578063ce69fd6f14610189578063d86ed3e5146101a9578063f6670545146101bc576100b4565b80630c08a5c4146100b9578063230dbd29146100e257806330d9c9151461010257806353c11f99146101155780635f9e7d771461012857806365e8e4f41461013b575b600080fd5b6100cc6100c7366004610c6b565b6101d4565b6040516100d991906110c9565b60405180910390f35b6100f56100f0366004610df6565b610322565b6040516100d991906110e8565b6100f5610110366004610d5a565b61035b565b6100f5610123366004610df6565b610394565b6100f5610136366004610d5a565b6103cd565b61014e610149366004610caa565b610406565b005b6100f561015e366004610d5a565b610522565b6100cc610171366004610c6b565b61055b565b6100cc610184366004610c6b565b610814565b61019c610197366004610c6b565b61082f565b6040516100d991906110dd565b6100f56101b7366004610df6565b61095f565b6101c4610998565b6040516100d9949392919061114a565b6000806003836001600160a01b03166395d89b416040518163ffffffff1660e01b815260040160006040518083038186803b15801561021257600080fd5b505afa158015610226573d6000803e3d6000fd5b505050506040513d6000823e601f3d908101601f1916820160405261024e9190810190610ebd565b60405160200161025f92919061103f565b60408051601f198184030181529082905260025463349f642f60e11b83529092506001600160a01b03169063693ec85e9061029e9084906004016110e8565b60206040518083038186803b1580156102b657600080fd5b505afa1580156102ca573d6000803e3d6000fd5b505050506040513d601f19601f820116820180604052508101906102ee9190610c8e565b91506001600160a01b03821661031c576001600160a01b038084166000908152600460205260409020541691505b50919050565b606060405162461bcd60e51b815260040180806020018281038252602e8152602001806112de602e913960400191505060405180910390fd5b606060405162461bcd60e51b815260040180806020018281038252602f81526020018061130c602f913960400191505060405180910390fd5b606060405162461bcd60e51b815260040180806020018281038252603181526020018061133b6031913960400191505060405180910390fd5b606060405162461bcd60e51b81526004018080602001828103825260338152602001806112206033913960400191505060405180910390fd5b600054610100900460ff168061041f575061041f610a62565b8061042d575060005460ff16155b6104685760405162461bcd60e51b815260040180806020018281038252602e815260200180611253602e913960400191505060405180910390fd5b600054610100900460ff16158015610493576000805460ff1961ff0019909116610100171660011790555b61049f85858585610a73565b6000546040516315a722b960e31b81526001916201000090046001600160a01b03169063ad3915c8906104d6908490600401611188565b600060405180830381600087803b1580156104f057600080fd5b505af1158015610504573d6000803e3d6000fd5b5050505050801561051b576000805461ff00191690555b5050505050565b606060405162461bcd60e51b815260040180806020018281038252602f815260200180611281602f913960400191505060405180910390fd5b6001600160a01b038181166000908152600460205260408120549091161561059e57506001600160a01b038082166000908152600460205260409020541661080f565b60008060029054906101000a90046001600160a01b03166001600160a01b031663731aed6e6040518163ffffffff1660e01b815260040160206040518083038186803b1580156105ed57600080fd5b505afa158015610601573d6000803e3d6000fd5b505050506040513d601f19601f820116820180604052508101906106259190610c8e565b90506000836001600160a01b03166306fdde036040518163ffffffff1660e01b815260040160006040518083038186803b15801561066257600080fd5b505afa158015610676573d6000803e3d6000fd5b505050506040513d6000823e601f3d908101601f1916820160405261069e9190810190610ebd565b6040516020016106ae919061109b565b60405160208183030381529060405290506000846001600160a01b03166395d89b416040518163ffffffff1660e01b815260040160006040518083038186803b1580156106fa57600080fd5b505afa15801561070e573d6000803e3d6000fd5b505050506040513d6000823e601f3d908101601f191682016040526107369190810190610ebd565b6040516020016107469190610fcc565b60408051601f198184030181529082905263431f148160e01b825291506001600160a01b0384169063431f148190610789908890600290879087906004016110fb565b602060405180830381600087803b1580156107a357600080fd5b505af11580156107b7573d6000803e3d6000fd5b505050506040513d601f19601f820116820180604052508101906107db9190610c8e565b6001600160a01b03868116600090815260046020526040902080546001600160a01b03191691831691909117905593505050505b919050565b6004602052600090815260409020546001600160a01b031681565b6000806003836001600160a01b03166395d89b416040518163ffffffff1660e01b815260040160006040518083038186803b15801561086d57600080fd5b505afa158015610881573d6000803e3d6000fd5b505050506040513d6000823e601f3d908101601f191682016040526108a99190810190610ebd565b6040516020016108ba929190610ff1565b60408051601f198184030181529082905260025463349f642f60e11b83529092506001600160a01b038086169291169063693ec85e906108fe9085906004016110e8565b60206040518083038186803b15801561091657600080fd5b505afa15801561092a573d6000803e3d6000fd5b505050506040513d601f19601f8201168201806040525081019061094e9190610c8e565b6001600160a01b0316149392505050565b606060405162461bcd60e51b815260040180806020018281038252602e8152602001806112b0602e913960400191505060405180910390fd5b6000805460028054600180546003805460408051602061010096841615969096026000190190921696909604601f810185900485028201850190965285815287968796606096620100009092046001600160a01b03908116969281169516939291839190830182828015610a4d5780601f10610a2257610100808354040283529160200191610a4d565b820191906000526020600020905b815481529060010190602001808311610a3057829003601f168201915b50505050509050935093509350935090919293565b6000610a6d30610b7d565b15905090565b600054610100900460ff1680610a8c5750610a8c610a62565b80610a9a575060005460ff16155b610ad55760405162461bcd60e51b815260040180806020018281038252602e815260200180611253602e913960400191505060405180910390fd5b600054610100900460ff16158015610b00576000805460ff1961ff0019909116610100171660011790555b600080546001600160a01b03808816620100000262010000600160b01b031990921691909117909155600180548683166001600160a01b03199182161790915560028054928616929091169190911790558151610b64906003906020850190610b83565b50801561051b576000805461ff00191690555050505050565b3b151590565b828054600181600116156101000203166002900490600052602060002090601f016020900481019282610bb95760008555610bff565b82601f10610bd257805160ff1916838001178555610bff565b82800160010185558215610bff579182015b82811115610bff578251825591602001919060010190610be4565b50610c0b929150610c0f565b5090565b5b80821115610c0b5760008155600101610c10565b60008083601f840112610c35578182fd5b50813567ffffffffffffffff811115610c4c578182fd5b602083019150836020828501011115610c6457600080fd5b9250929050565b600060208284031215610c7c578081fd5b8135610c8781611207565b9392505050565b600060208284031215610c9f578081fd5b8151610c8781611207565b60008060008060808587031215610cbf578283fd5b8435610cca81611207565b93506020850135610cda81611207565b92506040850135610cea81611207565b9150606085013567ffffffffffffffff811115610d05578182fd5b8501601f81018713610d15578182fd5b8035610d28610d23826111b5565b611191565b818152886020838501011115610d3c578384fd5b81602084016020830137908101602001929092525092959194509250565b600080600080600080600060a0888a031215610d74578283fd5b8735610d7f81611207565b96506020880135610d8f81611207565b955060408801359450606088013567ffffffffffffffff80821115610db2578485fd5b610dbe8b838c01610c24565b909650945060808a0135915080821115610dd6578384fd5b50610de38a828b01610c24565b989b979a50959850939692959293505050565b600080600080600080600080600060c08a8c031215610e13578182fd5b8935610e1e81611207565b985060208a0135610e2e81611207565b975060408a0135965060608a013567ffffffffffffffff80821115610e51578384fd5b610e5d8d838e01610c24565b909850965060808c0135915080821115610e75578384fd5b610e818d838e01610c24565b909650945060a08c0135915080821115610e99578384fd5b50610ea68c828d01610c24565b915080935050809150509295985092959850929598565b600060208284031215610ece578081fd5b815167ffffffffffffffff811115610ee4578182fd5b8201601f81018413610ef4578182fd5b8051610f02610d23826111b5565b818152856020838501011115610f16578384fd5b610f278260208301602086016111d7565b95945050505050565b60008151808452610f488160208601602086016111d7565b601f01601f19169290920160200192915050565b60008154600180821660008114610f7a5760018114610f9157610fc3565b60ff198316865260028304607f1686019350610fc3565b600283048560005260208060002060005b83811015610fbb5781548a820152908501908201610fa2565b505050860193505b50505092915050565b60008251610fde8184602087016111d7565b600f60fb1b920191825250600101919050565b60006a7375706572746f6b656e7360a81b8252601760f91b80600b84015261101c600c840186610f5c565b9081528351906110338260018301602088016111d7565b01600101949350505050565b60006a7375706572746f6b656e7360a81b8252601760f91b80600b84015261106a600c840186610f5c565b9081528351906110818260018301602088016111d7565b600f60fb1b91016001810191909152600201949350505050565b600065029bab832b9160d51b825282516110bc8160068501602087016111d7565b9190910160060192915050565b6001600160a01b0391909116815260200190565b901515815260200190565b600060208252610c876020830184610f30565b6001600160a01b038516815260006003851061111357fe5b8460208301526080604083015261112d6080830185610f30565b828103606084015261113f8185610f30565b979650505050505050565b6001600160a01b03858116825284811660208301528316604082015260806060820181905260009061117e90830184610f30565b9695505050505050565b90815260200190565b60405181810167ffffffffffffffff811182821017156111ad57fe5b604052919050565b600067ffffffffffffffff8211156111c957fe5b50601f01601f191660200190565b60005b838110156111f25781810151838201526020016111da565b83811115611201576000848401525b50505050565b6001600160a01b038116811461121c57600080fd5b5056fe556e737570706f727465642063616c6c6261636b202d20204265666f72652041677265656d656e74205465726d696e61746564496e697469616c697a61626c653a20636f6e747261637420697320616c726561647920696e697469616c697a6564556e737570706f727465642063616c6c6261636b202d204265666f72652041677265656d656e742075706461746564556e737570706f727465642063616c6c6261636b202d2041667465722041677265656d656e742043726561746564556e737570706f727465642063616c6c6261636b202d2041667465722041677265656d656e742055706461746564556e737570706f727465642063616c6c6261636b202d204265666f72652041677265656d656e742043726561746564556e737570706f727465642063616c6c6261636b202d2041667465722041677265656d656e74205465726d696e61746564a264697066735822122041a68fba10805b80af02e960ec892a6a5d96fd75e3840d3b8cee6cbb86080e6864736f6c63430007060033",
  "linkReferences": {},
  "deployedLinkReferences": {}
}