{
  "_format": "hh-sol-artifact-1",
  "contractName": "Moloch",
  "sourceName": "contracts/mocks/MolochMock.sol",
  "abi": [
    {
      "anonymous": false,
      "inputs": [
        {
          "indexed": true,
          "internalType": "uint256",
          "name": "proposalId",
          "type": "uint256"
        },
        {
          "indexed": false,
          "internalType": "address",
          "name": "applicantAddress",
          "type": "address"
        }
      ],
      "name": "CancelProposal",
      "type": "event"
    },
    {
      "anonymous": false,
      "inputs": [
        {
          "indexed": true,
          "internalType": "uint256",
          "name": "proposalIndex",
          "type": "uint256"
        },
        {
          "indexed": true,
          "internalType": "uint256",
          "name": "proposalId",
          "type": "uint256"
        },
        {
          "indexed": false,
          "internalType": "bool",
          "name": "didPass",
          "type": "bool"
        }
      ],
      "name": "ProcessGuildKickProposal",
      "type": "event"
    },
    {
      "anonymous": false,
      "inputs": [
        {
          "indexed": true,
          "internalType": "uint256",
          "name": "proposalIndex",
          "type": "uint256"
        },
        {
          "indexed": true,
          "internalType": "uint256",
          "name": "proposalId",
          "type": "uint256"
        },
        {
          "indexed": false,
          "internalType": "bool",
          "name": "didPass",
          "type": "bool"
        }
      ],
      "name": "ProcessProposal",
      "type": "event"
    },
    {
      "anonymous": false,
      "inputs": [
        {
          "indexed": true,
          "internalType": "uint256",
          "name": "proposalIndex",
          "type": "uint256"
        },
        {
          "indexed": true,
          "internalType": "uint256",
          "name": "proposalId",
          "type": "uint256"
        },
        {
          "indexed": false,
          "internalType": "bool",
          "name": "didPass",
          "type": "bool"
        }
      ],
      "name": "ProcessWhitelistProposal",
      "type": "event"
    },
    {
      "anonymous": false,
      "inputs": [
        {
          "indexed": true,
          "internalType": "address",
          "name": "memberAddress",
          "type": "address"
        },
        {
          "indexed": false,
          "internalType": "uint256",
          "name": "sharesToBurn",
          "type": "uint256"
        },
        {
          "indexed": false,
          "internalType": "uint256",
          "name": "lootToBurn",
          "type": "uint256"
        }
      ],
      "name": "Ragequit",
      "type": "event"
    },
    {
      "anonymous": false,
      "inputs": [
        {
          "indexed": true,
          "internalType": "address",
          "name": "delegateKey",
          "type": "address"
        },
        {
          "indexed": true,
          "internalType": "address",
          "name": "memberAddress",
          "type": "address"
        },
        {
          "indexed": false,
          "internalType": "uint256",
          "name": "proposalId",
          "type": "uint256"
        },
        {
          "indexed": false,
          "internalType": "uint256",
          "name": "proposalIndex",
          "type": "uint256"
        },
        {
          "indexed": false,
          "internalType": "uint256",
          "name": "startingPeriod",
          "type": "uint256"
        }
      ],
      "name": "SponsorProposal",
      "type": "event"
    },
    {
      "anonymous": false,
      "inputs": [
        {
          "indexed": true,
          "internalType": "address",
          "name": "applicant",
          "type": "address"
        },
        {
          "indexed": false,
          "internalType": "uint256",
          "name": "sharesRequested",
          "type": "uint256"
        },
        {
          "indexed": false,
          "internalType": "uint256",
          "name": "lootRequested",
          "type": "uint256"
        },
        {
          "indexed": false,
          "internalType": "uint256",
          "name": "tributeOffered",
          "type": "uint256"
        },
        {
          "indexed": false,
          "internalType": "address",
          "name": "tributeToken",
          "type": "address"
        },
        {
          "indexed": false,
          "internalType": "uint256",
          "name": "paymentRequested",
          "type": "uint256"
        },
        {
          "indexed": false,
          "internalType": "address",
          "name": "paymentToken",
          "type": "address"
        },
        {
          "indexed": false,
          "internalType": "string",
          "name": "details",
          "type": "string"
        },
        {
          "indexed": false,
          "internalType": "bool[6]",
          "name": "flags",
          "type": "bool[6]"
        },
        {
          "indexed": false,
          "internalType": "uint256",
          "name": "proposalId",
          "type": "uint256"
        },
        {
          "indexed": true,
          "internalType": "address",
          "name": "delegateKey",
          "type": "address"
        },
        {
          "indexed": true,
          "internalType": "address",
          "name": "memberAddress",
          "type": "address"
        }
      ],
      "name": "SubmitProposal",
      "type": "event"
    },
    {
      "anonymous": false,
      "inputs": [
        {
          "indexed": false,
          "internalType": "uint256",
          "name": "proposalId",
          "type": "uint256"
        },
        {
          "indexed": true,
          "internalType": "uint256",
          "name": "proposalIndex",
          "type": "uint256"
        },
        {
          "indexed": true,
          "internalType": "address",
          "name": "delegateKey",
          "type": "address"
        },
        {
          "indexed": true,
          "internalType": "address",
          "name": "memberAddress",
          "type": "address"
        },
        {
          "indexed": false,
          "internalType": "uint8",
          "name": "uintVote",
          "type": "uint8"
        }
      ],
      "name": "SubmitVote",
      "type": "event"
    },
    {
      "anonymous": false,
      "inputs": [
        {
          "indexed": true,
          "internalType": "address",
          "name": "summoner",
          "type": "address"
        },
        {
          "indexed": false,
          "internalType": "address[]",
          "name": "tokens",
          "type": "address[]"
        },
        {
          "indexed": false,
          "internalType": "uint256",
          "name": "summoningTime",
          "type": "uint256"
        },
        {
          "indexed": false,
          "internalType": "uint256",
          "name": "periodDuration",
          "type": "uint256"
        },
        {
          "indexed": false,
          "internalType": "uint256",
          "name": "votingPeriodLength",
          "type": "uint256"
        },
        {
          "indexed": false,
          "internalType": "uint256",
          "name": "gracePeriodLength",
          "type": "uint256"
        },
        {
          "indexed": false,
          "internalType": "uint256",
          "name": "proposalDeposit",
          "type": "uint256"
        },
        {
          "indexed": false,
          "internalType": "uint256",
          "name": "dilutionBound",
          "type": "uint256"
        },
        {
          "indexed": false,
          "internalType": "uint256",
          "name": "processingReward",
          "type": "uint256"
        }
      ],
      "name": "SummonComplete",
      "type": "event"
    },
    {
      "anonymous": false,
      "inputs": [
        {
          "indexed": true,
          "internalType": "address",
          "name": "token",
          "type": "address"
        },
        {
          "indexed": false,
          "internalType": "uint256",
          "name": "amountToCollect",
          "type": "uint256"
        }
      ],
      "name": "TokensCollected",
      "type": "event"
    },
    {
      "anonymous": false,
      "inputs": [
        {
          "indexed": true,
          "internalType": "address",
          "name": "memberAddress",
          "type": "address"
        },
        {
          "indexed": false,
          "internalType": "address",
          "name": "newDelegateKey",
          "type": "address"
        }
      ],
      "name": "UpdateDelegateKey",
      "type": "event"
    },
    {
      "anonymous": false,
      "inputs": [
        {
          "indexed": true,
          "internalType": "address",
          "name": "memberAddress",
          "type": "address"
        },
        {
          "indexed": false,
          "internalType": "address",
          "name": "token",
          "type": "address"
        },
        {
          "indexed": false,
          "internalType": "uint256",
          "name": "amount",
          "type": "uint256"
        }
      ],
      "name": "Withdraw",
      "type": "event"
    },
    {
      "inputs": [],
      "name": "ESCROW",
      "outputs": [
        {
          "internalType": "address",
          "name": "",
          "type": "address"
        }
      ],
      "stateMutability": "view",
      "type": "function"
    },
    {
      "inputs": [],
      "name": "GUILD",
      "outputs": [
        {
          "internalType": "address",
          "name": "",
          "type": "address"
        }
      ],
      "stateMutability": "view",
      "type": "function"
    },
    {
      "inputs": [],
      "name": "TOTAL",
      "outputs": [
        {
          "internalType": "address",
          "name": "",
          "type": "address"
        }
      ],
      "stateMutability": "view",
      "type": "function"
    },
    {
      "inputs": [
        {
          "internalType": "uint256",
          "name": "",
          "type": "uint256"
        }
      ],
      "name": "approvedTokens",
      "outputs": [
        {
          "internalType": "address",
          "name": "",
          "type": "address"
        }
      ],
      "stateMutability": "view",
      "type": "function"
    },
    {
      "inputs": [
        {
          "internalType": "uint256",
          "name": "highestIndexYesVote",
          "type": "uint256"
        }
      ],
      "name": "canRagequit",
      "outputs": [
        {
          "internalType": "bool",
          "name": "",
          "type": "bool"
        }
      ],
      "stateMutability": "view",
      "type": "function"
    },
    {
      "inputs": [
        {
          "internalType": "uint256",
          "name": "proposalId",
          "type": "uint256"
        }
      ],
      "name": "cancelProposal",
      "outputs": [],
      "stateMutability": "nonpayable",
      "type": "function"
    },
    {
      "inputs": [
        {
          "internalType": "address",
          "name": "token",
          "type": "address"
        }
      ],
      "name": "collectTokens",
      "outputs": [],
      "stateMutability": "nonpayable",
      "type": "function"
    },
    {
      "inputs": [],
      "name": "depositToken",
      "outputs": [
        {
          "internalType": "address",
          "name": "",
          "type": "address"
        }
      ],
      "stateMutability": "view",
      "type": "function"
    },
    {
      "inputs": [],
      "name": "dilutionBound",
      "outputs": [
        {
          "internalType": "uint256",
          "name": "",
          "type": "uint256"
        }
      ],
      "stateMutability": "view",
      "type": "function"
    },
    {
      "inputs": [],
      "name": "getCurrentPeriod",
      "outputs": [
        {
          "internalType": "uint256",
          "name": "",
          "type": "uint256"
        }
      ],
      "stateMutability": "view",
      "type": "function"
    },
    {
      "inputs": [
        {
          "internalType": "address",
          "name": "memberAddress",
          "type": "address"
        },
        {
          "internalType": "uint256",
          "name": "proposalIndex",
          "type": "uint256"
        }
      ],
      "name": "getMemberProposalVote",
      "outputs": [
        {
          "internalType": "enum Moloch.Vote",
          "name": "",
          "type": "uint8"
        }
      ],
      "stateMutability": "view",
      "type": "function"
    },
    {
      "inputs": [
        {
          "internalType": "uint256",
          "name": "proposalId",
          "type": "uint256"
        }
      ],
      "name": "getProposalFlags",
      "outputs": [
        {
          "internalType": "bool[6]",
          "name": "",
          "type": "bool[6]"
        }
      ],
      "stateMutability": "view",
      "type": "function"
    },
    {
      "inputs": [],
      "name": "getProposalQueueLength",
      "outputs": [
        {
          "internalType": "uint256",
          "name": "",
          "type": "uint256"
        }
      ],
      "stateMutability": "view",
      "type": "function"
    },
    {
      "inputs": [],
      "name": "getTokenCount",
      "outputs": [
        {
          "internalType": "uint256",
          "name": "",
          "type": "uint256"
        }
      ],
      "stateMutability": "view",
      "type": "function"
    },
    {
      "inputs": [
        {
          "internalType": "address",
          "name": "user",
          "type": "address"
        },
        {
          "internalType": "address",
          "name": "token",
          "type": "address"
        }
      ],
      "name": "getUserTokenBalance",
      "outputs": [
        {
          "internalType": "uint256",
          "name": "",
          "type": "uint256"
        }
      ],
      "stateMutability": "view",
      "type": "function"
    },
    {
      "inputs": [],
      "name": "gracePeriodLength",
      "outputs": [
        {
          "internalType": "uint256",
          "name": "",
          "type": "uint256"
        }
      ],
      "stateMutability": "view",
      "type": "function"
    },
    {
      "inputs": [
        {
          "internalType": "uint256",
          "name": "startingPeriod",
          "type": "uint256"
        }
      ],
      "name": "hasVotingPeriodExpired",
      "outputs": [
        {
          "internalType": "bool",
          "name": "",
          "type": "bool"
        }
      ],
      "stateMutability": "view",
      "type": "function"
    },
    {
      "inputs": [
        {
          "internalType": "address[]",
          "name": "_summoner",
          "type": "address[]"
        },
        {
          "internalType": "address[]",
          "name": "_approvedTokens",
          "type": "address[]"
        },
        {
          "internalType": "uint256",
          "name": "_periodDuration",
          "type": "uint256"
        },
        {
          "internalType": "uint256",
          "name": "_votingPeriodLength",
          "type": "uint256"
        },
        {
          "internalType": "uint256",
          "name": "_gracePeriodLength",
          "type": "uint256"
        },
        {
          "internalType": "uint256",
          "name": "_proposalDeposit",
          "type": "uint256"
        },
        {
          "internalType": "uint256",
          "name": "_dilutionBound",
          "type": "uint256"
        },
        {
          "internalType": "uint256",
          "name": "_processingReward",
          "type": "uint256"
        },
        {
          "internalType": "uint256[]",
          "name": "_summonerShares",
          "type": "uint256[]"
        }
      ],
      "name": "init",
      "outputs": [],
      "stateMutability": "nonpayable",
      "type": "function"
    },
    {
      "inputs": [
        {
          "internalType": "address",
          "name": "",
          "type": "address"
        }
      ],
      "name": "memberAddressByDelegateKey",
      "outputs": [
        {
          "internalType": "address",
          "name": "",
          "type": "address"
        }
      ],
      "stateMutability": "view",
      "type": "function"
    },
    {
      "inputs": [
        {
          "internalType": "uint256",
          "name": "",
          "type": "uint256"
        }
      ],
      "name": "memberList",
      "outputs": [
        {
          "internalType": "address",
          "name": "",
          "type": "address"
        }
      ],
      "stateMutability": "view",
      "type": "function"
    },
    {
      "inputs": [
        {
          "internalType": "address",
          "name": "",
          "type": "address"
        }
      ],
      "name": "members",
      "outputs": [
        {
          "internalType": "address",
          "name": "delegateKey",
          "type": "address"
        },
        {
          "internalType": "uint256",
          "name": "shares",
          "type": "uint256"
        },
        {
          "internalType": "uint256",
          "name": "loot",
          "type": "uint256"
        },
        {
          "internalType": "bool",
          "name": "exists",
          "type": "bool"
        },
        {
          "internalType": "uint256",
          "name": "highestIndexYesVote",
          "type": "uint256"
        },
        {
          "internalType": "uint256",
          "name": "jailed",
          "type": "uint256"
        }
      ],
      "stateMutability": "view",
      "type": "function"
    },
    {
      "inputs": [],
      "name": "periodDuration",
      "outputs": [
        {
          "internalType": "uint256",
          "name": "",
          "type": "uint256"
        }
      ],
      "stateMutability": "view",
      "type": "function"
    },
    {
      "inputs": [
        {
          "internalType": "uint256",
          "name": "proposalIndex",
          "type": "uint256"
        }
      ],
      "name": "processGuildKickProposal",
      "outputs": [],
      "stateMutability": "nonpayable",
      "type": "function"
    },
    {
      "inputs": [
        {
          "internalType": "uint256",
          "name": "proposalIndex",
          "type": "uint256"
        }
      ],
      "name": "processProposal",
      "outputs": [],
      "stateMutability": "nonpayable",
      "type": "function"
    },
    {
      "inputs": [
        {
          "internalType": "uint256",
          "name": "proposalIndex",
          "type": "uint256"
        }
      ],
      "name": "processWhitelistProposal",
      "outputs": [],
      "stateMutability": "nonpayable",
      "type": "function"
    },
    {
      "inputs": [],
      "name": "processingReward",
      "outputs": [
        {
          "internalType": "uint256",
          "name": "",
          "type": "uint256"
        }
      ],
      "stateMutability": "view",
      "type": "function"
    },
    {
      "inputs": [],
      "name": "proposalCount",
      "outputs": [
        {
          "internalType": "uint256",
          "name": "",
          "type": "uint256"
        }
      ],
      "stateMutability": "view",
      "type": "function"
    },
    {
      "inputs": [],
      "name": "proposalDeposit",
      "outputs": [
        {
          "internalType": "uint256",
          "name": "",
          "type": "uint256"
        }
      ],
      "stateMutability": "view",
      "type": "function"
    },
    {
      "inputs": [
        {
          "internalType": "uint256",
          "name": "",
          "type": "uint256"
        }
      ],
      "name": "proposalQueue",
      "outputs": [
        {
          "internalType": "uint256",
          "name": "",
          "type": "uint256"
        }
      ],
      "stateMutability": "view",
      "type": "function"
    },
    {
      "inputs": [
        {
          "internalType": "uint256",
          "name": "",
          "type": "uint256"
        }
      ],
      "name": "proposals",
      "outputs": [
        {
          "internalType": "address",
          "name": "applicant",
          "type": "address"
        },
        {
          "internalType": "address",
          "name": "proposer",
          "type": "address"
        },
        {
          "internalType": "address",
          "name": "sponsor",
          "type": "address"
        },
        {
          "internalType": "uint256",
          "name": "sharesRequested",
          "type": "uint256"
        },
        {
          "internalType": "uint256",
          "name": "lootRequested",
          "type": "uint256"
        },
        {
          "internalType": "uint256",
          "name": "tributeOffered",
          "type": "uint256"
        },
        {
          "internalType": "address",
          "name": "tributeToken",
          "type": "address"
        },
        {
          "internalType": "uint256",
          "name": "paymentRequested",
          "type": "uint256"
        },
        {
          "internalType": "address",
          "name": "paymentToken",
          "type": "address"
        },
        {
          "internalType": "uint256",
          "name": "startingPeriod",
          "type": "uint256"
        },
        {
          "internalType": "uint256",
          "name": "yesVotes",
          "type": "uint256"
        },
        {
          "internalType": "uint256",
          "name": "noVotes",
          "type": "uint256"
        },
        {
          "internalType": "string",
          "name": "details",
          "type": "string"
        },
        {
          "internalType": "uint256",
          "name": "maxTotalSharesAndLootAtYesVote",
          "type": "uint256"
        }
      ],
      "stateMutability": "view",
      "type": "function"
    },
    {
      "inputs": [
        {
          "internalType": "address",
          "name": "",
          "type": "address"
        }
      ],
      "name": "proposedToKick",
      "outputs": [
        {
          "internalType": "bool",
          "name": "",
          "type": "bool"
        }
      ],
      "stateMutability": "view",
      "type": "function"
    },
    {
      "inputs": [
        {
          "internalType": "address",
          "name": "",
          "type": "address"
        }
      ],
      "name": "proposedToWhitelist",
      "outputs": [
        {
          "internalType": "bool",
          "name": "",
          "type": "bool"
        }
      ],
      "stateMutability": "view",
      "type": "function"
    },
    {
      "inputs": [
        {
          "internalType": "address",
          "name": "memberToKick",
          "type": "address"
        }
      ],
      "name": "ragekick",
      "outputs": [],
      "stateMutability": "nonpayable",
      "type": "function"
    },
    {
      "inputs": [
        {
          "internalType": "uint256",
          "name": "sharesToBurn",
          "type": "uint256"
        },
        {
          "internalType": "uint256",
          "name": "lootToBurn",
          "type": "uint256"
        }
      ],
      "name": "ragequit",
      "outputs": [],
      "stateMutability": "nonpayable",
      "type": "function"
    },
    {
      "inputs": [
        {
          "internalType": "uint256",
          "name": "proposalId",
          "type": "uint256"
        }
      ],
      "name": "sponsorProposal",
      "outputs": [],
      "stateMutability": "nonpayable",
      "type": "function"
    },
    {
      "inputs": [
        {
          "internalType": "address",
          "name": "memberToKick",
          "type": "address"
        },
        {
          "internalType": "string",
          "name": "details",
          "type": "string"
        }
      ],
      "name": "submitGuildKickProposal",
      "outputs": [
        {
          "internalType": "uint256",
          "name": "proposalId",
          "type": "uint256"
        }
      ],
      "stateMutability": "nonpayable",
      "type": "function"
    },
    {
      "inputs": [
        {
          "internalType": "address",
          "name": "applicant",
          "type": "address"
        },
        {
          "internalType": "uint256",
          "name": "sharesRequested",
          "type": "uint256"
        },
        {
          "internalType": "uint256",
          "name": "lootRequested",
          "type": "uint256"
        },
        {
          "internalType": "uint256",
          "name": "tributeOffered",
          "type": "uint256"
        },
        {
          "internalType": "address",
          "name": "tributeToken",
          "type": "address"
        },
        {
          "internalType": "uint256",
          "name": "paymentRequested",
          "type": "uint256"
        },
        {
          "internalType": "address",
          "name": "paymentToken",
          "type": "address"
        },
        {
          "internalType": "string",
          "name": "details",
          "type": "string"
        }
      ],
      "name": "submitProposal",
      "outputs": [
        {
          "internalType": "uint256",
          "name": "proposalId",
          "type": "uint256"
        }
      ],
      "stateMutability": "nonpayable",
      "type": "function"
    },
    {
      "inputs": [
        {
          "internalType": "uint256",
          "name": "proposalIndex",
          "type": "uint256"
        },
        {
          "internalType": "uint8",
          "name": "uintVote",
          "type": "uint8"
        }
      ],
      "name": "submitVote",
      "outputs": [],
      "stateMutability": "nonpayable",
      "type": "function"
    },
    {
      "inputs": [
        {
          "internalType": "address",
          "name": "tokenToWhitelist",
          "type": "address"
        },
        {
          "internalType": "string",
          "name": "details",
          "type": "string"
        }
      ],
      "name": "submitWhitelistProposal",
      "outputs": [
        {
          "internalType": "uint256",
          "name": "proposalId",
          "type": "uint256"
        }
      ],
      "stateMutability": "nonpayable",
      "type": "function"
    },
    {
      "inputs": [],
      "name": "summoningTime",
      "outputs": [
        {
          "internalType": "uint256",
          "name": "",
          "type": "uint256"
        }
      ],
      "stateMutability": "view",
      "type": "function"
    },
    {
      "inputs": [
        {
          "internalType": "address",
          "name": "",
          "type": "address"
        }
      ],
      "name": "tokenWhitelist",
      "outputs": [
        {
          "internalType": "bool",
          "name": "",
          "type": "bool"
        }
      ],
      "stateMutability": "view",
      "type": "function"
    },
    {
      "inputs": [],
      "name": "totalGuildBankTokens",
      "outputs": [
        {
          "internalType": "uint256",
          "name": "",
          "type": "uint256"
        }
      ],
      "stateMutability": "view",
      "type": "function"
    },
    {
      "inputs": [],
      "name": "totalLoot",
      "outputs": [
        {
          "internalType": "uint256",
          "name": "",
          "type": "uint256"
        }
      ],
      "stateMutability": "view",
      "type": "function"
    },
    {
      "inputs": [],
      "name": "totalShares",
      "outputs": [
        {
          "internalType": "uint256",
          "name": "",
          "type": "uint256"
        }
      ],
      "stateMutability": "view",
      "type": "function"
    },
    {
      "inputs": [
        {
          "internalType": "address",
          "name": "newDelegateKey",
          "type": "address"
        }
      ],
      "name": "updateDelegateKey",
      "outputs": [],
      "stateMutability": "nonpayable",
      "type": "function"
    },
    {
      "inputs": [
        {
          "internalType": "address",
          "name": "",
          "type": "address"
        },
        {
          "internalType": "address",
          "name": "",
          "type": "address"
        }
      ],
      "name": "userTokenBalances",
      "outputs": [
        {
          "internalType": "uint256",
          "name": "",
          "type": "uint256"
        }
      ],
      "stateMutability": "view",
      "type": "function"
    },
    {
      "inputs": [],
      "name": "votingPeriodLength",
      "outputs": [
        {
          "internalType": "uint256",
          "name": "",
          "type": "uint256"
        }
      ],
      "stateMutability": "view",
      "type": "function"
    },
    {
      "inputs": [
        {
          "internalType": "address",
          "name": "token",
          "type": "address"
        },
        {
          "internalType": "uint256",
          "name": "amount",
          "type": "uint256"
        }
      ],
      "name": "withdrawBalance",
      "outputs": [],
      "stateMutability": "nonpayable",
      "type": "function"
    },
    {
      "inputs": [
        {
          "internalType": "address[]",
          "name": "tokens",
          "type": "address[]"
        },
        {
          "internalType": "uint256[]",
          "name": "amounts",
          "type": "uint256[]"
        },
        {
          "internalType": "bool",
          "name": "_max",
          "type": "bool"
        }
      ],
      "name": "withdrawBalances",
      "outputs": [],
      "stateMutability": "nonpayable",
      "type": "function"
    }
  ],
  "bytecode": "0x608060405260006009556000600a556000600b556000600c5534801561002457600080fd5b50600160005561544f806100396000396000f3fe608060405234801561001057600080fd5b50600436106102bb5760003560e01c806378a8956711610182578063b2643aab116100e9578063e0a8f6f5116100a2578063e63bc62d1161007c578063e63bc62d14610c70578063e681c4aa14610c8d578063f5d54c7714610c95578063feb7ea1d14610c9d576102bb565b8063e0a8f6f514610c10578063e178034514610c2d578063e1a0e3fa14610c53576102bb565b8063b2643aab14610b60578063b307fc6d14610bb5578063b470aade14610bd2578063c89039c514610bda578063da35c66414610be2578063dfdd369e14610bea576102bb565b80639746d9401161013b5780639746d940146109bd57806399653fbe146109da5780639d1722cb14610a00578063a3dc380014610a08578063a916261914610a25578063afe5475f14610b58576102bb565b806378a8956714610978578063797daf70146109805780637d5b6c72146109885780638340bbce146109905780638b15a605146109985780639425a476146109a0576102bb565b80633a98ef3911610226578063590f940b116101df578063590f940b1461081057806359999b41146108ee578063635e99aa1461091457806363858f2d1461091c57806373f8fd4b14610924578063753d756314610952576102bb565b80633a98ef39146106385780633b214a74146106405780633fc24bba1461065d578063402c1794146106975780634482394b146106bd57806345f2d105146107e2576102bb565b8063115b2d1811610278578063115b2d18146104dd57806315eb349e146105915780631dafede0146105b45780632582bf2a146105ed57806327efc086146106135780633793ab3c1461061b576102bb565b8063013cf08b146102c057806303e32fa1146103dd578063044a0ca8146103f7578063086146d21461044457806308ae4b0c1461044c5780630cf20cc9146104af575b600080fd5b6102dd600480360360208110156102d657600080fd5b5035610d51565b604051808f6001600160a01b031681526020018e6001600160a01b031681526020018d6001600160a01b031681526020018c81526020018b81526020018a8152602001896001600160a01b03168152602001888152602001876001600160a01b0316815260200186815260200185815260200184815260200180602001838152602001828103825284818151815260200191508051906020019080838360005b8381101561039557818101518382015260200161037d565b50505050905090810190601f1680156103c25780820380516001836020036101000a031916815260200191505b509f5050505050505050505050505050505060405180910390f35b6103e5610eb4565b60408051918252519081900360200190f35b6104236004803603604081101561040d57600080fd5b506001600160a01b038135169060200135610eba565b6040518082600281111561043357fe5b815260200191505060405180910390f35b6103e5610fc2565b6104726004803603602081101561046257600080fd5b50356001600160a01b0316610fea565b604080516001600160a01b0390971687526020870195909552858501939093529015156060850152608084015260a0830152519081900360c00190f35b6104db600480360360408110156104c557600080fd5b506001600160a01b03813516906020013561102d565b005b6103e5600480360360408110156104f357600080fd5b6001600160a01b038235169190810190604081016020820135600160201b81111561051d57600080fd5b82018360208201111561052f57600080fd5b803590602001918460018302840111600160201b8311171561055057600080fd5b91908080601f01602080910402602001604051908101604052809392919081815260200183838082843760009201919091525092955061108b945050505050565b6104db600480360360408110156105a757600080fd5b5080359060200135611217565b6105d1600480360360208110156105ca57600080fd5b50356112dd565b604080516001600160a01b039092168252519081900360200190f35b6104db6004803603602081101561060357600080fd5b50356001600160a01b0316611307565b6105d1611567565b6104db6004803603602081101561063157600080fd5b503561156d565b6103e5611788565b6103e56004803603602081101561065657600080fd5b503561178e565b6106836004803603602081101561067357600080fd5b50356001600160a01b03166117af565b604080519115158252519081900360200190f35b6105d1600480360360208110156106ad57600080fd5b50356001600160a01b03166117c4565b6104db600480360360608110156106d357600080fd5b810190602081018135600160201b8111156106ed57600080fd5b8201836020820111156106ff57600080fd5b803590602001918460208302840111600160201b8311171561072057600080fd5b9190808060200260200160405190810160405280939291908181526020018383602002808284376000920191909152509295949360208101935035915050600160201b81111561076f57600080fd5b82018360208201111561078157600080fd5b803590602001918460208302840111600160201b831117156107a257600080fd5b91908080602002602001604051908101604052809392919081815260200183836020028082843760009201919091525092955050505035151590506117df565b6103e5600480360360408110156107f857600080fd5b506001600160a01b0381358116916020013516611911565b6103e5600480360361010081101561082757600080fd5b6001600160a01b038235811692602081013592604082013592606083013592608081013582169260a08201359260c0830135169190810190610100810160e0820135600160201b81111561087a57600080fd5b82018360208201111561088c57600080fd5b803590602001918460018302840111600160201b831117156108ad57600080fd5b91908080601f01602080910402602001604051908101604052809392919081815260200183838082843760009201919091525092955061192e945050505050565b6104db6004803603602081101561090457600080fd5b50356001600160a01b0316611d65565b6103e5612064565b6103e561206a565b6103e56004803603604081101561093a57600080fd5b506001600160a01b0381358116916020013516612070565b6106836004803603602081101561096857600080fd5b50356001600160a01b031661209b565b6103e56120b0565b6103e56120b6565b6103e56120bc565b6103e56120c2565b6103e56120c8565b610683600480360360208110156109b657600080fd5b50356120ce565b6104db600480360360208110156109d357600080fd5b50356120f5565b6104db600480360360408110156109f057600080fd5b508035906020013560ff166127c6565b6103e5612c6d565b61068360048036036020811015610a1e57600080fd5b5035612c73565b6104db6004803603610120811015610a3c57600080fd5b810190602081018135600160201b811115610a5657600080fd5b820183602082011115610a6857600080fd5b803590602001918460208302840111600160201b83111715610a8957600080fd5b919390929091602081019035600160201b811115610aa657600080fd5b820183602082011115610ab857600080fd5b803590602001918460208302840111600160201b83111715610ad957600080fd5b9193909282359260208101359260408201359260608301359260808101359260a082013592909160e081019060c00135600160201b811115610b1a57600080fd5b820183602082011115610b2c57600080fd5b803590602001918460208302840111600160201b83111715610b4d57600080fd5b509092509050612d1c565b6103e5613526565b610b7d60048036036020811015610b7657600080fd5b503561352c565b604051808260c080838360005b83811015610ba2578181015183820152602001610b8a565b5050505090500191505060405180910390f35b6105d160048036036020811015610bcb57600080fd5b5035613596565b6103e56135a6565b6105d16135ac565b6103e56135c0565b6104db60048036036020811015610c0057600080fd5b50356001600160a01b03166135c6565b6104db60048036036020811015610c2657600080fd5b5035613728565b61068360048036036020811015610c4357600080fd5b50356001600160a01b03166138f0565b6104db60048036036020811015610c6957600080fd5b5035613905565b6104db60048036036020811015610c8657600080fd5b5035613b00565b6105d1614085565b6105d161408b565b6103e560048036036040811015610cb357600080fd5b6001600160a01b038235169190810190604081016020820135600160201b811115610cdd57600080fd5b820183602082011115610cef57600080fd5b803590602001918460018302840111600160201b83111715610d1057600080fd5b91908080601f016020809104026020016040519081016040528093929190818152602001838380828437600092019190915250929550614091945050505050565b60156020528060005260406000206000915090508060000160009054906101000a90046001600160a01b0316908060010160009054906101000a90046001600160a01b0316908060020160009054906101000a90046001600160a01b0316908060030154908060040154908060050154908060060160009054906101000a90046001600160a01b0316908060070154908060080160009054906101000a90046001600160a01b03169080600901549080600a01549080600b01549080600d018054600181600116156101000203166002900480601f016020809104026020016040519081016040528092919081815260200182805460018160011615610100020316600290048015610ea45780601f10610e7957610100808354040283529160200191610ea4565b820191906000526020600020905b815481529060010190602001808311610e8757829003601f168201915b50505050509080600e015490508e565b60065481565b6001600160a01b03821660009081526012602052604081206003015460ff16610f22576040805162461bcd60e51b81526020600482015260156024820152741b595b58995c88191bd95cc81b9bdd08195e1a5cdd605a1b604482015290519081900360640190fd5b6016548210610f72576040805162461bcd60e51b81526020600482015260176024820152761c1c9bdc1bdcd85b08191bd95cc81b9bdd08195e1a5cdd604a1b604482015290519081900360640190fd5b6015600060168481548110610f8357fe5b6000918252602080832090910154835282810193909352604091820181206001600160a01b0387168252600f0190925290205460ff1690505b92915050565b6000610fe5600154610fdf6007544261420890919063ffffffff16565b90614265565b905090565b6012602052600090815260409020805460018201546002830154600384015460048501546005909501546001600160a01b03909416949293919260ff9091169186565b60026000541415611073576040805162461bcd60e51b815260206004820152601f6024820152600080516020614fa5833981519152604482015290519081900360640190fd5b600260005561108282826142cc565b50506001600055565b6000600260005414156110d3576040805162461bcd60e51b815260206004820152601f6024820152600080516020614fa5833981519152604482015290519081900360640190fd5b600260008181556001600160a01b03808616825260126020908152604092839020835160c0810185528154909316835260018101549183018290529384015492820192909252600383015460ff16151560608201526004830154608082015260059092015460a083015215158061114e575060008160400151115b6111895760405162461bcd60e51b815260040180806020018281038252602f81526020018061515a602f913960400191505060405180910390fd5b6001600160a01b038416600090815260126020526040902060050154156111e15760405162461bcd60e51b81526004018080602001828103825260218152602001806150a26021913960400191505060405180910390fd5b6111e9614e3c565b600160a082015261120285600080808080808b8961444b565b50506009546001600055600019019392505050565b6002600054141561125d576040805162461bcd60e51b815260206004820152601f6024820152600080516020614fa5833981519152604482015290519081900360640190fd5b600260009081553381526012602052604090206001015415158061129257503360009081526012602052604090206002015415155b6112d2576040805162461bcd60e51b815260206004820152600c60248201526b3737ba10309036b2b6b132b960a11b604482015290519081900360640190fd5b611082338383614699565b600f81815481106112ed57600080fd5b6000918252602090912001546001600160a01b0316905081565b6002600054141561134d576040805162461bcd60e51b815260206004820152601f6024820152600080516020614fa5833981519152604482015290519081900360640190fd5b60026000908155338152601260205260409020600101546113a9576040805162461bcd60e51b81526020600482015260116024820152703737ba10309039b430b932b437b63232b960791b604482015290519081900360640190fd5b6001600160a01b038116611404576040805162461bcd60e51b815260206004820152601a60248201527f6e657744656c65676174654b65792063616e6e6f742062652030000000000000604482015290519081900360640190fd5b6001600160a01b03811633146114d9576001600160a01b03811660009081526012602052604090206003015460ff161561146f5760405162461bcd60e51b815260040180806020018281038252602181526020018061529b6021913960400191505060405180910390fd5b6001600160a01b03808216600090815260136020908152604080832054909316825260129052206003015460ff16156114d95760405162461bcd60e51b8152600401808060200182810382526027815260200180614f7e6027913960400191505060405180910390fd5b33600081815260126020908152604080832080546001600160a01b0390811685526013845282852080546001600160a01b031990811690915590871680865294839020805482168717905581541684178155815193845290519093927fde7b64a369e10562cc2e71f0f1f944eaf144b75fead6ecb51fac9c4dd693488592908290030190a250506001600055565b61babe81565b600260005414156115b3576040805162461bcd60e51b815260206004820152601f6024820152600080516020614fa5833981519152604482015290519081900360640190fd5b60026000556115c181614974565b6000601682815481106115d057fe5b60009182526020808320919091015480835260159091526040909120600c81015491925090600160201b900460ff16611650576040805162461bcd60e51b815260206004820152601c60248201527f6d75737420626520612077686974656c6973742070726f706f73616c00000000604482015290519081900360640190fd5b600c8101805461ff001916610100179055600061166c84614b40565b600f549091506101901161167e575060005b801561170f57600c8201805462ff00001916620100001790556006820180546001600160a01b039081166000908152600e60205260408120805460ff191660019081179091559254600f805494850181559091527f8d1108e10bcb7c27dddfc02ed9d693a074039d026cf4ea4240b40f7d581ac8029092018054929091166001600160a01b03199092169190911790555b60068201546001600160a01b039081166000908152601060205260409020805460ff1916905560028301546117449116614bdc565b6040805182151581529051849186917f2094fc13d2ecb0acd6861e82bd006c7e5ab6f312ec0c6cdfe3d1a01ee54d885a9181900360200190a3505060016000555050565b600a5481565b6016818154811061179e57600080fd5b600091825260209091200154905081565b60116020526000908152604090205460ff1681565b6013602052600090815260409020546001600160a01b031681565b60026000541415611825576040805162461bcd60e51b815260206004820152601f6024820152600080516020614fa5833981519152604482015290519081900360640190fd5b6002600055815183511461186a5760405162461bcd60e51b81526004018080602001828103825260328152602001806151896032913960400191505060405180910390fd5b60005b835181101561190657600083828151811061188457fe5b6020026020010151905082156118e057336000908152600d6020526040812086519091908790859081106118b457fe5b60200260200101516001600160a01b03166001600160a01b031681526020019081526020016000205490505b6118fd8583815181106118ef57fe5b6020026020010151826142cc565b5060010161186d565b505060016000555050565b600d60209081526000928352604080842090915290825290205481565b600060026000541415611976576040805162461bcd60e51b815260206004820152601f6024820152600080516020614fa5833981519152604482015290519081900360640190fd5b6002600055670de0b6b3a764000061198e8989614c3d565b11156119dd576040805162461bcd60e51b81526020600482015260196024820152781d1bdbc81b585b9e481cda185c995cc81c995c5d595cdd1959603a1b604482015290519081900360640190fd5b6001600160a01b0385166000908152600e602052604090205460ff16611a4a576040805162461bcd60e51b815260206004820152601f60248201527f74726962757465546f6b656e206973206e6f742077686974656c697374656400604482015290519081900360640190fd5b6001600160a01b0383166000908152600e602052604090205460ff16611ab7576040805162461bcd60e51b815260206004820152601a60248201527f7061796d656e74206973206e6f742077686974656c6973746564000000000000604482015290519081900360640190fd5b6001600160a01b038916611b0a576040805162461bcd60e51b815260206004820152601560248201527406170706c6963616e742063616e6e6f74206265203605c1b604482015290519081900360640190fd5b6001600160a01b03891661dead14801590611b3057506001600160a01b03891661beef14155b8015611b4757506001600160a01b03891661babe14155b611b825760405162461bcd60e51b81526004018080602001828103825260248152602001806150376024913960400191505060405180910390fd5b6001600160a01b03891660009081526012602052604090206005015415611bda5760405162461bcd60e51b81526004018080602001828103825260258152602001806152116025913960400191505060405180910390fd5b600086118015611c0d57506001600160a01b03851660009081526000805160206151bb8339815191526020526040902054155b15611c535760c8600c5410611c535760405162461bcd60e51b815260040180806020018281038252604781526020018061505b6047913960600191505060405180910390fd5b604080516323b872dd60e01b81523360048201523060248201526044810188905290516001600160a01b038716916323b872dd9160648083019260209291908290030181600087803b158015611ca857600080fd5b505af1158015611cbc573d6000803e3d6000fd5b505050506040513d6020811015611cd257600080fd5b5051611d25576040805162461bcd60e51b815260206004820152601d60248201527f7472696275746520746f6b656e207472616e73666572206661696c6564000000604482015290519081900360640190fd5b611d3261beef8688614c9e565b611d3a614e3c565b611d4b8a8a8a8a8a8a8a8a8961444b565b505060095460001901600160005598975050505050505050565b336000908152601360209081526040808320546001600160a01b031683526012909152902060010154611dd0576040805162461bcd60e51b815260206004820152600e60248201526d6e6f7420612064656c656761746560901b604482015290519081900360640190fd5b60026000541415611e16576040805162461bcd60e51b815260206004820152601f6024820152600080516020614fa5833981519152604482015290519081900360640190fd5b600260009081556001600160a01b0382168082527fa30f7a7832bd8a7a8daa3a3f5b7a6f7cec6a2fbb1a121fa5b76520e44736771c602090815260408084205481516370a0823160e01b81523060048201529151611ec694919391926370a08231926024808301939192829003018186803b158015611e9457600080fd5b505afa158015611ea8573d6000803e3d6000fd5b505050506040513d6020811015611ebe57600080fd5b505190614208565b905060008111611f14576040805162461bcd60e51b81526020600482015260146024820152731b9bc81d1bdad95b9cc81d1bc818dbdb1b1958dd60621b604482015290519081900360640190fd5b6001600160a01b0382166000908152600e602052604090205460ff16611f6b5760405162461bcd60e51b81526004018080602001828103825260248152602001806150e66024913960400191505060405180910390fd5b6001600160a01b03821660009081526000805160206151bb8339815191526020526040902054151580611fa0575060c8600c54105b611fdb5760405162461bcd60e51b81526004018080602001828103825260368152602001806151db6036913960400191505060405180910390fd5b6001600160a01b03821660009081526000805160206151bb833981519152602052604090205461200f57600c805460010190555b61201c61dead8383614c9e565b6040805182815290516001600160a01b038416917f9381e53ffdc9733a6783a6f8665be3f89c231bb81a6771996ed553b4e75c0fe3919081900360200190a250506001600055565b600b5481565b60035481565b6001600160a01b039182166000908152600d6020908152604080832093909416825291909152205490565b600e6020526000908152604090205460ff1681565b600f5490565b60165490565b60075481565b60025481565b60045481565b60006120e560025483614c3d90919063ffffffff16565b6120ed610fc2565b101592915050565b6002600054141561213b576040805162461bcd60e51b815260206004820152601f6024820152600080516020614fa5833981519152604482015290519081900360640190fd5b60026000908155338152601360209081526040808320546001600160a01b0316835260129091529020600101546121aa576040805162461bcd60e51b815260206004820152600e60248201526d6e6f7420612064656c656761746560901b604482015290519081900360640190fd5b60085460048054604080516323b872dd60e01b815233938101939093523060248401526044830191909152516101009092046001600160a01b0316916323b872dd916064808201926020929091908290030181600087803b15801561220e57600080fd5b505af1158015612222573d6000803e3d6000fd5b505050506040513d602081101561223857600080fd5b50516122755760405162461bcd60e51b815260040180806020018281038252602681526020018061532a6026913960400191505060405180910390fd5b61229961beef600860019054906101000a90046001600160a01b0316600454614c9e565b600081815260156020526040902060018101546001600160a01b0316612306576040805162461bcd60e51b815260206004820181905260248201527f70726f706f73616c206d7573742068617665206265656e2070726f706f736564604482015290519081900360640190fd5b600c81015460ff161561234a5760405162461bcd60e51b81526004018080602001828103825260238152602001806152576023913960400191505060405180910390fd5b600c8101546301000000900460ff16156123ab576040805162461bcd60e51b815260206004820152601b60248201527f70726f706f73616c20686173206265656e2063616e63656c6c65640000000000604482015290519081900360640190fd5b80546001600160a01b0316600090815260126020526040902060050154156124045760405162461bcd60e51b81526004018080602001828103825260258152602001806152116025913960400191505060405180910390fd5b6000816005015411801561243f575060068101546001600160a01b031660009081526000805160206151bb8339815191526020526040902054155b156124855760c8600c54106124855760405162461bcd60e51b81526004018080602001828103825260488152602001806152e26048913960600191505060405180910390fd5b600c810154600160201b900460ff16156125d55760068101546001600160a01b03166000908152600e602052604090205460ff16156124f55760405162461bcd60e51b81526004018080602001828103825260298152602001806153956029913960400191505060405180910390fd5b60068101546001600160a01b031660009081526010602052604090205460ff1615612567576040805162461bcd60e51b815260206004820152601d60248201527f616c72656164792070726f706f73656420746f2077686974656c697374000000604482015290519081900360640190fd5b600f54610190116125a95760405162461bcd60e51b815260040180806020018281038252602781526020018061510a6027913960400191505060405180910390fd5b60068101546001600160a01b03166000908152601060205260409020805460ff1916600117905561267f565b600c81015465010000000000900460ff161561267f5780546001600160a01b031660009081526011602052604090205460ff161561265a576040805162461bcd60e51b815260206004820152601860248201527f616c72656164792070726f706f73656420746f206b69636b0000000000000000604482015290519081900360640190fd5b80546001600160a01b03166000908152601160205260409020805460ff191660011790555b60006126e860016126e2612691610fc2565b601654156126da57601680546015916000916126ae906001614208565b815481106126b857fe5b90600052602060002001548152602001908152602001600020600901546126dd565b60005b614cfc565b90614c3d565b60098301819055336000818152601360205260408120546002860180546001600160a01b0319166001600160a01b039092169182179055600c8601805460ff19166001908117909155601680548083018255938190527fd833147d7dc355ba459fc788f669e58cfaf9dc25ddcd0702e87d69c7b51242899093018890559154939450928392917f2a383a979381335e3eb401ac01dd8083e024ff0256bf5338456ffc0063390bbd91889161279c9190614208565b604080519283526020830191909152818101879052519081900360600190a3505060016000555050565b6002600054141561280c576040805162461bcd60e51b815260206004820152601f6024820152600080516020614fa5833981519152604482015290519081900360640190fd5b60026000908155338152601360209081526040808320546001600160a01b03168352601290915290206001015461287b576040805162461bcd60e51b815260206004820152600e60248201526d6e6f7420612064656c656761746560901b604482015290519081900360640190fd5b336000908152601360209081526040808320546001600160a01b0316808452601290925290912060165484106128f2576040805162461bcd60e51b81526020600482015260176024820152761c1c9bdc1bdcd85b08191bd95cc81b9bdd08195e1a5cdd604a1b604482015290519081900360640190fd5b6000601560006016878154811061290557fe5b90600052602060002001548152602001908152602001600020905060038460ff161061296e576040805162461bcd60e51b81526020600482015260136024820152726d757374206265206c657373207468616e203360681b604482015290519081900360640190fd5b60008460ff16600281111561297f57fe5b9050816009015461298e610fc2565b10156129e1576040805162461bcd60e51b815260206004820152601d60248201527f766f74696e6720706572696f6420686173206e6f742073746172746564000000604482015290519081900360640190fd5b6129ee82600901546120ce565b15612a2a5760405162461bcd60e51b81526004018080602001828103825260228152602001806153506022913960400191505060405180910390fd5b6001600160a01b0384166000908152600f8301602052604081205460ff166002811115612a5357fe5b14612aa5576040805162461bcd60e51b815260206004820152601860248201527f6d656d6265722068617320616c726561647920766f7465640000000000000000604482015290519081900360640190fd5b6001816002811115612ab357fe5b1480612aca57506002816002811115612ac857fe5b145b612b1b576040805162461bcd60e51b815260206004820152601d60248201527f766f7465206d7573742062652065697468657220596573206f72204e6f000000604482015290519081900360640190fd5b6001600160a01b0384166000908152600f830160205260409020805482919060ff19166001836002811115612b4c57fe5b02179055506001816002811115612b5f57fe5b1415612bc5576001830154600a830154612b7891614c3d565b600a8301556004830154861115612b9157600483018690555b600e820154600b54600a54612ba591614c3d565b1115612bc057600b54600a54612bba91614c3d565b600e8301555b612bf2565b6002816002811115612bd357fe5b1415612bf2576001830154600b830154612bec91614c3d565b600b8301555b836001600160a01b0316336001600160a01b0316877f804f03797630bf8b8a46b9371608abbf7d78a20df720e477bab641957ca68a2060168a81548110612c3557fe5b906000526020600020015489604051808381526020018260ff1681526020019250505060405180910390a45050600160005550505050565b600c5481565b6016546000908210612cc6576040805162461bcd60e51b81526020600482015260176024820152761c1c9bdc1bdcd85b08191bd95cc81b9bdd08195e1a5cdd604a1b604482015290519081900360640190fd5b6015600060168481548110612cd757fe5b90600052602060002001548152602001908152602001600020600c01600160068110612cff57fe5b602081049091015460ff601f9092166101000a9004169050919050565b60085460ff1615612d62576040805162461bcd60e51b815260206004820152600b60248201526a1a5b9a5d1a585b1a5e995960aa1b604482015290519081900360640190fd5b8a8114612da05760405162461bcd60e51b81526004018080602001828103825260298152602001806151316029913960400191505060405180910390fd5b60008811612df5576040805162461bcd60e51b815260206004820152601b60248201527f5f706572696f644475726174696f6e2063616e6e6f7420626520300000000000604482015290519081900360640190fd5b60008711612e4a576040805162461bcd60e51b815260206004820152601f60248201527f5f766f74696e67506572696f644c656e6774682063616e6e6f74206265203000604482015290519081900360640190fd5b670de0b6b3a7640000871115612e915760405162461bcd60e51b81526004018080602001828103825260218152602001806152366021913960400191505060405180910390fd5b670de0b6b3a7640000861115612eee576040805162461bcd60e51b815260206004820181905260248201527f5f6772616365506572696f644c656e6774682065786365656473206c696d6974604482015290519081900360640190fd5b60008411612f43576040805162461bcd60e51b815260206004820152601a60248201527f5f64696c7574696f6e426f756e642063616e6e6f742062652030000000000000604482015290519081900360640190fd5b670de0b6b3a7640000841115612fa0576040805162461bcd60e51b815260206004820152601c60248201527f5f64696c7574696f6e426f756e642065786365656473206c696d697400000000604482015290519081900360640190fd5b88612ff2576040805162461bcd60e51b815260206004820181905260248201527f6e656564206174206c65617374206f6e6520617070726f76656420746f6b656e604482015290519081900360640190fd5b61019089111561303b576040805162461bcd60e51b815260206004820152600f60248201526e746f6f206d616e7920746f6b656e7360881b604482015290519081900360640190fd5b8285101561307a5760405162461bcd60e51b81526004018080602001828103825260398152602001806153be6039913960400191505060405180910390fd5b8989600081811061308757fe5b905060200201356001600160a01b0316600860016101000a8154816001600160a01b0302191690836001600160a01b0316021790555060005b8b8110156132df5760008d8d838181106130d657fe5b905060200201356001600160a01b03166001600160a01b03161415613139576040805162461bcd60e51b8152602060048201526014602482015273073756d6d6f6e65722063616e6e6f7420626520360641b604482015290519081900360640190fd5b6040518060c001604052808e8e8481811061315057fe5b905060200201356001600160a01b03166001600160a01b0316815260200184848481811061317a57fe5b90506020020135815260200160008152602001600115158152602001600081526020016000815250601260008f8f858181106131b257fe5b602090810292909201356001600160a01b03908116845283830194909452506040918201600020845181546001600160a01b031916941693909317835583015160018301558201516002820155606082015160038201805460ff19169115159190911790556080820151600482015560a0909101516005909101558c8c8281811061323957fe5b905060200201356001600160a01b0316601360008f8f8581811061325957fe5b905060200201356001600160a01b03166001600160a01b03166001600160a01b0316815260200190815260200160002060006101000a8154816001600160a01b0302191690836001600160a01b031602179055506132d48383838181106132bc57fe5b90506020020135600a54614c3d90919063ffffffff16565b600a556001016130c0565b50670de0b6b3a7640000600a54111561333b576040805162461bcd60e51b81526020600482015260196024820152781d1bdbc81b585b9e481cda185c995cc81c995c5d595cdd1959603a1b604482015290519081900360640190fd5b60005b898110156134f25760008b8b8381811061335457fe5b905060200201356001600160a01b03166001600160a01b031614156133c0576040805162461bcd60e51b815260206004820152601a60248201527f5f617070726f766564546f6b656e2063616e6e6f742062652030000000000000604482015290519081900360640190fd5b600e60008c8c848181106133d057fe5b602090810292909201356001600160a01b03168352508101919091526040016000205460ff1615613448576040805162461bcd60e51b815260206004820152601860248201527f6475706c696361746520617070726f76656420746f6b656e0000000000000000604482015290519081900360640190fd5b6001600e60008d8d8581811061345a57fe5b905060200201356001600160a01b03166001600160a01b03166001600160a01b0316815260200190815260200160002060006101000a81548160ff021916908315150217905550600f8b8b838181106134af57fe5b835460018181018655600095865260209586902090910180546001600160a01b0319166001600160a01b039690930294909401359490941617909155500161333e565b5050506001958655600294909455600392909255600455600555600655426007556008805460ff1916909117905550505050565b60055481565b613534614e3c565b600082815260156020526040808220815160c081019283905292600c909101916006918390855b825461010083900a900460ff16151581526020600192830181810494850194909303909202910180841161355b575094979650505050505050565b601481815481106112ed57600080fd5b60015481565b60085461010090046001600160a01b031681565b60095481565b6002600054141561360c576040805162461bcd60e51b815260206004820152601f6024820152600080516020614fa5833981519152604482015290519081900360640190fd5b600260009081556001600160a01b03821681526012602052604090206005810154613677576040805162461bcd60e51b81526020600482015260166024820152751b595b58995c881b5d5cdd081899481a5b881a985a5b60521b604482015290519081900360640190fd5b60008160020154116136d0576040805162461bcd60e51b815260206004820152601a60248201527f6d656d626572206d757374206861766520736f6d65206c6f6f74000000000000604482015290519081900360640190fd5b6136dd8160040154612c73565b6137185760405162461bcd60e51b815260040180806020018281038252604d815260200180614fc5604d913960600191505060405180910390fd5b6110828260008360020154614699565b6002600054141561376e576040805162461bcd60e51b815260206004820152601f6024820152600080516020614fa5833981519152604482015290519081900360640190fd5b60026000908155818152601560205260409020600c81015460ff16156137c55760405162461bcd60e51b81526004018080602001828103825260238152602001806152576023913960400191505060405180910390fd5b600c8101546301000000900460ff16156138105760405162461bcd60e51b81526004018080602001828103825260238152602001806153726023913960400191505060405180910390fd5b60018101546001600160a01b03163314613871576040805162461bcd60e51b815260206004820152601e60248201527f736f6c656c79207468652070726f706f7365722063616e2063616e63656c0000604482015290519081900360640190fd5b600c8101805463ff000000191663010000001790556001810154600682015460058301546138b19261beef926001600160a01b0391821692911690614d13565b60408051338152905183917fc215fed6680bb02d323dc3f8b8f85241572607538426059c9232601bd293c3be919081900360200190a250506001600055565b60106020526000908152604090205460ff1681565b6002600054141561394b576040805162461bcd60e51b815260206004820152601f6024820152600080516020614fa5833981519152604482015290519081900360640190fd5b600260005561395981614974565b60006016828154811061396857fe5b60009182526020808320919091015480835260159091526040909120600c8101549192509065010000000000900460ff166139ea576040805162461bcd60e51b815260206004820152601d60248201527f6d7573742062652061206775696c64206b69636b2070726f706f73616c000000604482015290519081900360640190fd5b600c8101805461ff0019166101001790556000613a0684614b40565b90508015613a8a57600c8201805462ff000019166201000017905581546001600160a01b031660009081526012602052604090206005810185905560018101546002820154613a5491614c3d565b60028201556001810154600a54613a6a91614208565b600a556001810154600b54613a7e91614c3d565b600b5560006001909101555b81546001600160a01b039081166000908152601160205260409020805460ff191690556002830154613abc9116614bdc565b6040805182151581529051849186917f0e347d00d3e9e6cdff9e6c09092c9ff1bd448f9b3dfb7091b30939ec5e7a3c739181900360200190a3505060016000555050565b60026000541415613b46576040805162461bcd60e51b815260206004820152601f6024820152600080516020614fa5833981519152604482015290519081900360640190fd5b6002600055613b5481614974565b600060168281548110613b6357fe5b60009182526020808320919091015480835260159091526040909120600c81015491925090600160201b900460ff16158015613bad5750600c81015465010000000000900460ff16155b613bfe576040805162461bcd60e51b815260206004820152601b60248201527f6d7573742062652061207374616e646172642070726f706f73616c0000000000604482015290519081900360640190fd5b600c8101805461ff0019166101001790556000613c1a84614b40565b9050670de0b6b3a7640000613c4c83600401546126e285600301546126e2600b54600a54614c3d90919063ffffffff16565b1115613c56575060005b60088201546001600160a01b031660009081526000805160206151bb833981519152602052604090205460078301541115613c8f575060005b60008260050154118015613cca575060068201546001600160a01b031660009081526000805160206151bb8339815191526020526040902054155b8015613cd9575060c8600c5410155b15613ce2575060005b8015613fff57600c8201805462ff000019166201000017905581546001600160a01b031660009081526012602052604090206003015460ff1615613dad57600382015482546001600160a01b0316600090815260126020526040902060010154613d4b91614c3d565b82546001600160a01b03908116600090815260126020526040808220600101939093556004850154855490921681529190912060020154613d8b91614c3d565b82546001600160a01b0316600090815260126020526040902060020155613ef0565b81546001600160a01b03908116600090815260136020908152604080832054909316825260129052206003015460ff1615613e315781546001600160a01b0390811660009081526013602090815260408083205490931680835283832080546001600160a01b03199081168317909155601290925292909120805490911690911790555b6040805160c08101825283546001600160a01b0390811680835260038087015460208086019182526004808a0154878901908152600160608901818152600060808b0181815260a08c01828152998252601287528c82209b518c54908c166001600160a01b0319918216178d559751938c0193909355925160028b015551958901805496151560ff1990971696909617909555935190870155925160059095019490945586549092168083526013909152929020805490911690911790555b6003820154600a54613f0191614c3d565b600a556004820154600b54613f1591614c3d565b600b5560068201546001600160a01b031660009081526000805160206151bb8339815191526020526040902054158015613f53575060008260050154115b15613f6257600c805460010190555b60068201546005830154613f879161beef9161dead916001600160a01b031690614d13565b815460088301546007840154613faf9261dead926001600160a01b0391821692911690614d13565b60088201546001600160a01b031660009081526000805160206151bb8339815191526020526040902054158015613fea575060008260070154115b15613ffa57600c80546000190190555b61402a565b60018201546006830154600584015461402a9261beef926001600160a01b0391821692911690614d13565b6002820154614041906001600160a01b0316614bdc565b6040805182151581529051849186917f86f74240ecee9e4230d26ff92e17fee978460d9c0f78f5c88b2864c9e7a494279181900360200190a3505060016000555050565b61beef81565b61dead81565b6000600260005414156140d9576040805162461bcd60e51b815260206004820152601f6024820152600080516020614fa5833981519152604482015290519081900360640190fd5b60026000556001600160a01b038316614139576040805162461bcd60e51b815260206004820152601a60248201527f6d7573742070726f7669646520746f6b656e2061646472657373000000000000604482015290519081900360640190fd5b6001600160a01b0383166000908152600e602052604090205460ff16156141915760405162461bcd60e51b81526004018080602001828103825260298152602001806153956029913960400191505060405180910390fd5b600f54610190116141d35760405162461bcd60e51b81526004018080602001828103825260268152602001806152bc6026913960400191505060405180910390fd5b6141db614e3c565b600160808201526141f460008080808881808a8961444b565b505060095460001901600160005592915050565b60008282111561425f576040805162461bcd60e51b815260206004820152601e60248201527f536166654d6174683a207375627472616374696f6e206f766572666c6f770000604482015290519081900360640190fd5b50900390565b60008082116142bb576040805162461bcd60e51b815260206004820152601a60248201527f536166654d6174683a206469766973696f6e206279207a65726f000000000000604482015290519081900360640190fd5b8183816142c457fe5b049392505050565b336000908152600d602090815260408083206001600160a01b038616845290915290205481111561433b576040805162461bcd60e51b8152602060048201526014602482015273696e73756666696369656e742062616c616e636560601b604482015290519081900360640190fd5b614346338383614d2f565b6040805163a9059cbb60e01b81523360048201526024810183905290516001600160a01b0384169163a9059cbb9160448083019260209291908290030181600087803b15801561439557600080fd5b505af11580156143a9573d6000803e3d6000fd5b505050506040513d60208110156143bf57600080fd5b5051614404576040805162461bcd60e51b815260206004820152600f60248201526e1d1c985b9cd9995c8819985a5b1959608a1b604482015290519081900360640190fd5b604080516001600160a01b038416815260208101839052815133927f9b1bfa7fa9ee420a16e124f794c35ac9f90472acc99140eb2f6447c714cad8eb928290030190a25050565b60098054600090815260156020526040812080546001600160a01b03808e166001600160a01b031992831617835560018301805483163317905560028301805483169055600383018d9055600483018c9055600583018b9055600680840180548c8416908516179055600784018a9055600884018054928a169290931691909117909155928101829055600a8101829055600b810191909155906144f590600c8301908490614e5a565b50825161450b90600d8301906020860190614eec565b50600081600e0181905550600060136000336001600160a01b03166001600160a01b0316815260200190815260200160002060009054906101000a90046001600160a01b03169050806001600160a01b0316336001600160a01b03168c6001600160a01b03167fa763e0f5e4f4e33a3397b4ba22677c9b6fd2075ed6504596333006ff2f3e38748d8d8d8d8d8d8d8d600954604051808a8152602001898152602001888152602001876001600160a01b03168152602001868152602001856001600160a01b031681526020018060200184600660200280838360005b838110156145ff5781810151838201526020016145e7565b50505050905001838152602001828103825285818151815260200191508051906020019080838360005b83811015614641578181015183820152602001614629565b50505050905090810190601f16801561466e5780820380516001836020036101000a031916815260200191505b509a505050505050505050505060405180910390a45050600980546001019055505050505050505050565b60006146b2600b54600a54614c3d90919063ffffffff16565b6001600160a01b038516600090815260126020526040902060018101549192509084111561471d576040805162461bcd60e51b8152602060048201526013602482015272696e73756666696369656e742073686172657360681b604482015290519081900360640190fd5b828160020154101561476a576040805162461bcd60e51b81526020600482015260116024820152701a5b9cdd59999a58da595b9d081b1bdbdd607a1b604482015290519081900360640190fd5b6147778160040154612c73565b6147b25760405162461bcd60e51b815260040180806020018281038252604d815260200180614fc5604d913960600191505060405180910390fd5b60006147be8585614c3d565b60018301549091506147d09086614208565b600183015560028201546147e49085614208565b6002830155600a546147f69086614208565b600a55600b546148069085614208565b600b5560005b600f548110156149315761dead6000908152600d602052600f8054614874916000805160206151bb833981519152918491908690811061484857fe5b60009182526020808320909101546001600160a01b031683528201929092526040019020548487614d8f565b905080156149285761dead6000908152600d602052600f805483926000805160206151bb833981519152929091869081106148ab57fe5b60009182526020808320909101546001600160a01b0390811684528382019490945260409283018220805495909503909455918b168252600d909252908120600f805484939190869081106148fc57fe5b60009182526020808320909101546001600160a01b031683528201929092526040019020805490910190555b5060010161480c565b506040805186815260208101869052815133927fcad1a1c68982832d9abc314de8a1e5d5e8c81b0588961e360766736d10c3be1a928290030190a2505050505050565b60165481106149c4576040805162461bcd60e51b81526020600482015260176024820152761c1c9bdc1bdcd85b08191bd95cc81b9bdd08195e1a5cdd604a1b604482015290519081900360640190fd5b600060156000601684815481106149d757fe5b906000526020600020015481526020019081526020016000209050614a116003546126e26002548460090154614c3d90919063ffffffff16565b614a19610fc2565b1015614a565760405162461bcd60e51b81526004018080602001828103825260258152602001806150126025913960400191505060405180910390fd5b600c810154610100900460ff1615614a9f5760405162461bcd60e51b81526004018080602001828103825260238152602001806153f76023913960400191505060405180910390fd5b811580614b015750601560006016614ab8856001614208565b81548110614ac257fe5b90600052602060002001548152602001908152602001600020600c01600160068110614aea57fe5b602081049091015460ff601f9092166101000a9004165b614b3c5760405162461bcd60e51b81526004018080602001828103825260238152602001806150c36023913960400191505060405180910390fd5b5050565b6000806015600060168581548110614b5457fe5b90600052602060002001548152602001908152602001600020905080600b015481600a015411915080600e0154614ba4600554614b9e600b54600a54614c3d90919063ffffffff16565b90614de3565b1015614baf57600091505b80546001600160a01b031660009081526012602052604090206005015415614bd657600091505b50919050565b614c0161beef33600860019054906101000a90046001600160a01b0316600654614d13565b614c3a61beef82600860019054906101000a90046001600160a01b0316614c3560065460045461420890919063ffffffff16565b614d13565b50565b600082820183811015614c97576040805162461bcd60e51b815260206004820152601b60248201527f536166654d6174683a206164646974696f6e206f766572666c6f770000000000604482015290519081900360640190fd5b9392505050565b6001600160a01b039283166000908152600d602090815260408083209490951682529283528381208054830190557fa30f7a7832bd8a7a8daa3a3f5b7a6f7cec6a2fbb1a121fa5b76520e44736771c90925291902080549091019055565b600081831015614d0c5781614c97565b5090919050565b614d1e848383614d2f565b614d29838383614c9e565b50505050565b6001600160a01b039283166000908152600d60209081526040808320949095168252928352838120805483900390557fa30f7a7832bd8a7a8daa3a3f5b7a6f7cec6a2fbb1a121fa5b76520e44736771c9092529190208054919091039055565b600081614d9b57600080fd5b83614da857506000614c97565b83830283858281614db557fe5b041415614dce57828181614dc557fe5b04915050614c97565b83838681614dd857fe5b040295945050505050565b600082614df257506000610fbc565b82820282848281614dff57fe5b0414614c975760405162461bcd60e51b815260040180806020018281038252602181526020018061527a6021913960400191505060405180910390fd5b6040518060c001604052806006906020820280368337509192915050565b600183019183908215614edc5791602002820160005b83821115614ead57835183826101000a81548160ff0219169083151502179055509260200192600101602081600001049283019260010302614e70565b8015614eda5782816101000a81549060ff0219169055600101602081600001049283019260010302614ead565b505b50614ee8929150614f68565b5090565b828054600181600116156101000203166002900490600052602060002090601f016020900481019282614f225760008555614edc565b82601f10614f3b57805160ff1916838001178555614edc565b82800160010185558215614edc579182015b82811115614edc578251825591602001919060010190614f4d565b5b80821115614ee85760008155600101614f6956fe63616e6e6f74206f7665727772697465206578697374696e672064656c6567617465206b6579735265656e7472616e637947756172643a207265656e7472616e742063616c6c0063616e6e6f7420726167657175697420756e74696c206869676865737420696e6465782070726f706f73616c206d656d62657220766f74656420594553206f6e2069732070726f63657373656470726f706f73616c206973206e6f7420726561647920746f2062652070726f6365737365646170706c6963616e7420616464726573732063616e6e6f7420626520726573657276656463616e6e6f74207375626d6974206d6f726520747269627574652070726f706f73616c7320666f72206e657720746f6b656e73202d206775696c6462616e6b2069732066756c6c6d656d626572206d757374206e6f7420616c7265616479206265206a61696c656470726576696f75732070726f706f73616c206d7573742062652070726f636573736564746f6b656e20746f20636f6c6c656374206d7573742062652077686974656c697374656463616e6e6f742073706f6e736f72206d6f72652077686974656c6973742070726f706f73616c7373756d6d6f6e6572206c656e677468206d69736d6174636865732073756d6d6f6e65725368617265736d656d626572206d7573742068617665206174206c65617374206f6e65207368617265206f72206f6e65206c6f6f74746f6b656e7320616e6420616d6f756e747320617272617973206d757374206265206d61746368696e67206c656e67746873dc7fafdc41998a74ecacb8f8bd877011aba1f1d03a3a0d37a2e7879a393b1d6a746f6b656e20746f20636f6c6c656374206d7573742068617665206e6f6e2d7a65726f206775696c642062616e6b2062616c616e636570726f706f73616c206170706c6963616e74206d757374206e6f74206265206a61696c65645f766f74696e67506572696f644c656e6774682065786365656473206c696d697470726f706f73616c2068617320616c7265616479206265656e2073706f6e736f726564536166654d6174683a206d756c7469706c69636174696f6e206f766572666c6f7763616e6e6f74206f7665727772697465206578697374696e67206d656d6265727363616e6e6f74207375626d6974206d6f72652077686974656c6973742070726f706f73616c7363616e6e6f742073706f6e736f72206d6f726520747269627574652070726f706f73616c7320666f72206e657720746f6b656e73202d206775696c6462616e6b2069732066756c6c70726f706f73616c206465706f73697420746f6b656e207472616e73666572206661696c656470726f706f73616c20766f74696e6720706572696f6420686173206578706972656470726f706f73616c2068617320616c7265616479206265656e2063616e63656c6c656463616e6e6f7420616c726561647920686176652077686974656c69737465642074686520746f6b656e5f70726f706f73616c4465706f7369742063616e6e6f7420626520736d616c6c6572207468616e205f70726f63657373696e6752657761726470726f706f73616c2068617320616c7265616479206265656e2070726f636573736564a2646970667358221220fdd1012146a00a36de19f6bdd2a8fb6f919e798b1cbab9b7d8fd839ef665cde164736f6c63430007060033",
  "linkReferences": {},
  "deployedLinkReferences": {}
}