{
  "_format": "hh-sol-artifact-1",
  "contractName": "MolochSummoner",
  "sourceName": "contracts/mocks/MolochSummonerMock.sol",
  "abi": [
    {
      "inputs": [
        {
          "internalType": "address payable",
          "name": "_template",
          "type": "address"
        }
      ],
      "stateMutability": "nonpayable",
      "type": "constructor"
    },
    {
      "anonymous": false,
      "inputs": [
        {
          "indexed": false,
          "internalType": "uint256",
          "name": "daoIdx",
          "type": "uint256"
        },
        {
          "indexed": false,
          "internalType": "address",
          "name": "moloch",
          "type": "address"
        },
        {
          "indexed": false,
          "internalType": "string",
          "name": "title",
          "type": "string"
        },
        {
          "indexed": false,
          "internalType": "string",
          "name": "http",
          "type": "string"
        },
        {
          "indexed": false,
          "internalType": "uint256",
          "name": "version",
          "type": "uint256"
        }
      ],
      "name": "Register",
      "type": "event"
    },
    {
      "anonymous": false,
      "inputs": [
        {
          "indexed": true,
          "internalType": "address",
          "name": "moloch",
          "type": "address"
        },
        {
          "indexed": false,
          "internalType": "address[]",
          "name": "summoner",
          "type": "address[]"
        },
        {
          "indexed": false,
          "internalType": "address[]",
          "name": "tokens",
          "type": "address[]"
        },
        {
          "indexed": false,
          "internalType": "uint256",
          "name": "summoningTime",
          "type": "uint256"
        },
        {
          "indexed": false,
          "internalType": "uint256",
          "name": "periodDuration",
          "type": "uint256"
        },
        {
          "indexed": false,
          "internalType": "uint256",
          "name": "votingPeriodLength",
          "type": "uint256"
        },
        {
          "indexed": false,
          "internalType": "uint256",
          "name": "gracePeriodLength",
          "type": "uint256"
        },
        {
          "indexed": false,
          "internalType": "uint256",
          "name": "proposalDeposit",
          "type": "uint256"
        },
        {
          "indexed": false,
          "internalType": "uint256",
          "name": "dilutionBound",
          "type": "uint256"
        },
        {
          "indexed": false,
          "internalType": "uint256",
          "name": "processingReward",
          "type": "uint256"
        },
        {
          "indexed": false,
          "internalType": "uint256[]",
          "name": "summonerShares",
          "type": "uint256[]"
        }
      ],
      "name": "SummonComplete",
      "type": "event"
    },
    {
      "inputs": [
        {
          "internalType": "address",
          "name": "",
          "type": "address"
        }
      ],
      "name": "daos",
      "outputs": [
        {
          "internalType": "bool",
          "name": "",
          "type": "bool"
        }
      ],
      "stateMutability": "view",
      "type": "function"
    },
    {
      "inputs": [
        {
          "internalType": "address",
          "name": "_daoAdress",
          "type": "address"
        },
        {
          "internalType": "string",
          "name": "_daoTitle",
          "type": "string"
        },
        {
          "internalType": "string",
          "name": "_http",
          "type": "string"
        },
        {
          "internalType": "uint256",
          "name": "_version",
          "type": "uint256"
        }
      ],
      "name": "registerDao",
      "outputs": [
        {
          "internalType": "bool",
          "name": "",
          "type": "bool"
        }
      ],
      "stateMutability": "nonpayable",
      "type": "function"
    },
    {
      "inputs": [
        {
          "internalType": "address[]",
          "name": "_summoner",
          "type": "address[]"
        },
        {
          "internalType": "address[]",
          "name": "_approvedTokens",
          "type": "address[]"
        },
        {
          "internalType": "uint256",
          "name": "_periodDuration",
          "type": "uint256"
        },
        {
          "internalType": "uint256",
          "name": "_votingPeriodLength",
          "type": "uint256"
        },
        {
          "internalType": "uint256",
          "name": "_gracePeriodLength",
          "type": "uint256"
        },
        {
          "internalType": "uint256",
          "name": "_proposalDeposit",
          "type": "uint256"
        },
        {
          "internalType": "uint256",
          "name": "_dilutionBound",
          "type": "uint256"
        },
        {
          "internalType": "uint256",
          "name": "_processingReward",
          "type": "uint256"
        },
        {
          "internalType": "uint256[]",
          "name": "_summonerShares",
          "type": "uint256[]"
        }
      ],
      "name": "summonMoloch",
      "outputs": [
        {
          "internalType": "address",
          "name": "",
          "type": "address"
        }
      ],
      "stateMutability": "nonpayable",
      "type": "function"
    },
    {
      "inputs": [],
      "name": "template",
      "outputs": [
        {
          "internalType": "address payable",
          "name": "",
          "type": "address"
        }
      ],
      "stateMutability": "view",
      "type": "function"
    }
  ],
  "bytecode": "0x60a0604052600060015534801561001557600080fd5b50604051610a80380380610a808339818101604052602081101561003857600080fd5b5051606081901b6001600160601b0319166080526001600160a01b0316610a0f610071600039806103bb528061068c5250610a0f6000f3fe608060405234801561001057600080fd5b506004361061004c5760003560e01c806337c8d503146100515780636f2ddd9314610236578063c25f3cf61461023e578063dfc35ad114610278575b600080fd5b61021a600480360361012081101561006857600080fd5b810190602081018135600160201b81111561008257600080fd5b82018360208201111561009457600080fd5b803590602001918460208302840111600160201b831117156100b557600080fd5b9190808060200260200160405190810160405280939291908181526020018383602002808284376000920191909152509295949360208101935035915050600160201b81111561010457600080fd5b82018360208201111561011657600080fd5b803590602001918460208302840111600160201b8311171561013757600080fd5b919080806020026020016040519081016040528093929190818152602001838360200280828437600092019190915250929584359560208601359560408101359550606081013594506080810135935060a081013592919060e081019060c00135600160201b8111156101a957600080fd5b8201836020820111156101bb57600080fd5b803590602001918460208302840111600160201b831117156101dc57600080fd5b9190808060200260200160405190810160405280939291908181526020018383602002808284376000920191909152509295506103b3945050505050565b604080516001600160a01b039092168252519081900360200190f35b61021a61068a565b6102646004803603602081101561025457600080fd5b50356001600160a01b03166106ae565b604080519115158252519081900360200190f35b6102646004803603608081101561028e57600080fd5b6001600160a01b038235169190810190604081016020820135600160201b8111156102b857600080fd5b8201836020820111156102ca57600080fd5b803590602001918460018302840111600160201b831117156102eb57600080fd5b91908080601f0160208091040260200160405190810160405280939291908181526020018383808284376000920191909152509295949360208101935035915050600160201b81111561033d57600080fd5b82018360208201111561034f57600080fd5b803590602001918460018302840111600160201b8311171561037057600080fd5b91908080601f01602080910402602001604051908101604052809392919081815260200183838082843760009201919091525092955050913592506106c3915050565b6000806103df7f0000000000000000000000000000000000000000000000000000000000000000610987565b9050806001600160a01b031663a91626198c8c8c8c8c8c8c8c8c6040518a63ffffffff1660e01b81526004018080602001806020018a81526020018981526020018881526020018781526020018681526020018581526020018060200184810384528d818151815260200191508051906020019060200280838360005b8381101561047457818101518382015260200161045c565b5050505090500184810383528c818151815260200191508051906020019060200280838360005b838110156104b357818101518382015260200161049b565b50505050905001848103825285818151815260200191508051906020019060200280838360005b838110156104f25781810151838201526020016104da565b505050509050019c50505050505050505050505050600060405180830381600087803b15801561052157600080fd5b505af1158015610535573d6000803e3d6000fd5b50505050806001600160a01b03167f099e0b09e056ad33e22e4d35de2e837a30ba249f33d912abb7e1e273bbf9d6508c8c428d8d8d8d8d8d8d6040518080602001806020018b81526020018a81526020018981526020018881526020018781526020018681526020018581526020018060200184810384528e818151815260200191508051906020019060200280838360005b838110156105e05781810151838201526020016105c8565b5050505090500184810383528d818151815260200191508051906020019060200280838360005b8381101561061f578181015183820152602001610607565b50505050905001848103825285818151815260200191508051906020019060200280838360005b8381101561065e578181015183820152602001610646565b505050509050019d505050505050505050505050505060405180910390a29a9950505050505050505050565b7f000000000000000000000000000000000000000000000000000000000000000081565b60006020819052908152604090205460ff1681565b600280546001600160a01b0319166001600160a01b0386811691909117918290556040805163022b92c360e21b81523360048201529051600093849316916308ae4b0c9160248083019260c0929190829003018186803b15801561072657600080fd5b505afa15801561073a573d6000803e3d6000fd5b505050506040513d60c081101561075057600080fd5b506060015190506001811515146107a1576040805162461bcd60e51b815260206004820152601060248201526f36bab9ba10313290309036b2b6b132b960811b604482015290519081900360640190fd5b6001600160a01b03861660009081526020819052604090205460ff161561080f576040805162461bcd60e51b815260206004820152601f60248201527f64616f206d6574616461746120616c7265616479207265676973746572656400604482015290519081900360640190fd5b6001600080886001600160a01b03166001600160a01b0316815260200190815260200160002060006101000a81548160ff0219169083151502179055506001546001016001819055507ffa01623ae7dadfb821d1e96adaf9e6dca0b6437e6c73dfe18af0d9ba73301d436001548787878760405180868152602001856001600160a01b031681526020018060200180602001848152602001838103835286818151815260200191508051906020019080838360005b838110156108dc5781810151838201526020016108c4565b50505050905090810190601f1680156109095780820380516001836020036101000a031916815260200191505b50838103825285518152855160209182019187019080838360005b8381101561093c578181015183820152602001610924565b50505050905090810190601f1680156109695780820380516001836020036101000a031916815260200191505b5097505050505050505060405180910390a150600195945050505050565b6000808260601b9050604051733d602d80600a3d3981f3363d3d373d3d3d363d7360601b81528160148201526e5af43d82803e903d91602b57fd5bf360881b60288201526037816000f094935050505056fea2646970667358221220ebf51753370b3680870e602c37859ec36a0bf72eaff1ec7478d374a9634f38b264736f6c63430007060033",
  "linkReferences": {},
  "deployedLinkReferences": {}
}